{
  "contractName": "AgreementContract",
  "abi": [
    {
      "constant": false,
      "inputs": [
        {
          "name": "_claimId",
          "type": "bytes32"
        },
        {
          "name": "_newBigchain_hash",
          "type": "bytes"
        }
      ],
      "name": "signDocument",
      "outputs": [],
      "payable": false,
      "stateMutability": "nonpayable",
      "type": "function"
    },
    {
      "constant": true,
      "inputs": [
        {
          "name": "_claimId",
          "type": "bytes32"
        }
      ],
      "name": "getSignatures",
      "outputs": [
        {
          "name": "",
          "type": "address[]"
        }
      ],
      "payable": false,
      "stateMutability": "view",
      "type": "function"
    }
  ],
  "bytecode": "0x608060405273ecfcab0a285d3380e488a39b4bb21e777f8a4eac6000806101000a81548173ffffffffffffffffffffffffffffffffffffffff021916908373ffffffffffffffffffffffffffffffffffffffff16021790555034801561006457600080fd5b50610401806100746000396000f30060806040526004361061004c576000357c0100000000000000000000000000000000000000000000000000000000900463ffffffff1680639bc5106814610051578063a4c96e75146100d7575b600080fd5b34801561005d57600080fd5b50610080600480360381019080803560001916906020019092919050505061014e565b6040518080602001828103825283818151815260200191508051906020019060200280838360005b838110156100c35780820151818401526020810190506100a8565b505050509050019250505060405180910390f35b3480156100e357600080fd5b5061014c6004803603810190808035600019169060200190929190803590602001908201803590602001908080601f0160208091040260200160405190810160405280939291908181526020018383808284378201915050505050509192919290505050610280565b005b60606000809054906101000a900473ffffffffffffffffffffffffffffffffffffffff1673ffffffffffffffffffffffffffffffffffffffff16639bc51068836040518263ffffffff167c0100000000000000000000000000000000000000000000000000000000028152600401808260001916600019168152602001915050600060405180830381600087803b1580156101e857600080fd5b505af11580156101fc573d6000803e3d6000fd5b505050506040513d6000823e3d601f19601f82011682018060405250602081101561022657600080fd5b81019080805164010000000081111561023e57600080fd5b8281019050602081018481111561025457600080fd5b815185602082028301116401000000008211171561027157600080fd5b50509291905050509050919050565b6000809054906101000a900473ffffffffffffffffffffffffffffffffffffffff1673ffffffffffffffffffffffffffffffffffffffff1663ed016b138383336040518463ffffffff167c0100000000000000000000000000000000000000000000000000000000028152600401808460001916600019168152602001806020018373ffffffffffffffffffffffffffffffffffffffff1673ffffffffffffffffffffffffffffffffffffffff168152602001828103825284818151815260200191508051906020019080838360005b8381101561036b578082015181840152602081019050610350565b50505050905090810190601f1680156103985780820380516001836020036101000a031916815260200191505b50945050505050600060405180830381600087803b1580156103b957600080fd5b505af11580156103cd573d6000803e3d6000fd5b5050505050505600a165627a7a72305820202061f870e2b512f9a189eab99f6f96519900151924ed55a502f5110486b6900029",
  "source": "pragma solidity ^0.4.4;\r\n\r\nimport \"./ClaimStorage.sol\";\r\nimport \"./Claim.sol\";\r\n\r\n\r\ncontract AgreementContract {\r\n\r\n    ClaimStorage claimStorage = ClaimStorage(0xecfcab0a285d3380e488a39b4bb21e777f8a4eac);         // The main ClaimAssist (The HUB) contract where primary persistant storage is maintained\r\n\r\n     function signDocument(bytes32 _claimId, bytes _newBigchain_hash ) public {\r\n        claimStorage.addSignatures(_claimId,_newBigchain_hash,msg.sender);\r\n    }\r\n\r\n    function getSignatures(bytes32 _claimId) public view returns (address[]) {\r\n        return claimStorage.getSignatures(_claimId);\r\n    }\r\n}\r\n",
  "sourcePath": "C:\\Users\\jeshw\\blockinsurance\\contracts\\claimAssist\\AgreementContract.sol",
  "compiler": {
    "name": "solc",
    "version": "0.4.23+commit.124ca40d.Emscripten.clang"
  },
  "schemaVersion": "2.0.0",
  "updatedAt": "2018-07-17T23:07:44.529Z"
}