{
  "contractName": "AgreementContract",
  "abi": [
    {
      "constant": true,
      "inputs": [
        {
          "name": "",
          "type": "bytes32"
        }
      ],
      "name": "claimS",
      "outputs": [
        {
          "name": "timestamp",
          "type": "uint256"
        },
        {
          "name": "bigchain_hash",
          "type": "bytes"
        }
      ],
      "payable": false,
      "stateMutability": "view",
      "type": "function"
    },
    {
      "constant": false,
      "inputs": [
        {
          "name": "claimId",
          "type": "bytes32"
        },
        {
          "name": "_bigchainHash",
          "type": "bytes"
        },
        {
          "name": "_timeStamp",
          "type": "uint256"
        }
      ],
      "name": "addClaim",
      "outputs": [
        {
          "name": "",
          "type": "bytes32"
        }
      ],
      "payable": false,
      "stateMutability": "nonpayable",
      "type": "function"
    },
    {
      "constant": false,
      "inputs": [
        {
          "name": "_claimId",
          "type": "bytes32"
        },
        {
          "name": "_newBigchain_hash",
          "type": "bytes"
        }
      ],
      "name": "signDocument",
      "outputs": [],
      "payable": false,
      "stateMutability": "nonpayable",
      "type": "function"
    },
    {
      "constant": true,
      "inputs": [
        {
          "name": "_claimId",
          "type": "bytes32"
        }
      ],
      "name": "getSignatures",
      "outputs": [
        {
          "name": "",
          "type": "address[]"
        }
      ],
      "payable": false,
      "stateMutability": "view",
      "type": "function"
    },
    {
      "constant": true,
      "inputs": [
        {
          "name": "_claimId",
          "type": "bytes32"
        }
      ],
      "name": "getBigchainHash",
      "outputs": [
        {
          "name": "",
          "type": "bytes"
        }
      ],
      "payable": false,
      "stateMutability": "view",
      "type": "function"
    }
  ],
  "bytecode": "0x608060405234801561001057600080fd5b5061096d806100206000396000f30060806040526004361061006d576000357c0100000000000000000000000000000000000000000000000000000000900463ffffffff168063068d4cc8146100725780639bc510681461010f578063a4c96e7514610195578063da2b75821461020c578063f7e13da8146102bd575b600080fd5b34801561007e57600080fd5b506100f16004803603810190808035600019169060200190929190803590602001908201803590602001908080601f016020809104026020016040519081016040528093929190818152602001838380828437820191505050505050919291929080359060200190929190505050610367565b60405180826000191660001916815260200191505060405180910390f35b34801561011b57600080fd5b5061013e6004803603810190808035600019169060200190929190505050610472565b6040518080602001828103825283818151815260200191508051906020019060200280838360005b83811015610181578082015181840152602081019050610166565b505050509050019250505060405180910390f35b3480156101a157600080fd5b5061020a6004803603810190808035600019169060200190929190803590602001908201803590602001908080601f016020809104026020016040519081016040528093929190818152602001838380828437820191505050505050919291929050505061051d565b005b34801561021857600080fd5b5061023b60048036038101908080356000191690602001909291905050506105d4565b6040518083815260200180602001828103825283818151815260200191508051906020019080838360005b83811015610281578082015181840152602081019050610266565b50505050905090810190601f1680156102ae5780820380516001836020036101000a031916815260200191505b50935050505060405180910390f35b3480156102c957600080fd5b506102ec6004803603810190808035600019169060200190929190505050610690565b6040518080602001828103825283818151815260200191508051906020019080838360005b8381101561032c578082015181840152602081019050610311565b50505050905090810190601f1680156103595780820380516001836020036101000a031916815260200191505b509250505060405180910390f35b60006060600160405190808252806020026020018201604052801561039b5781602001602082028038833980820191505090505b509050338160008151811015156103ae57fe5b9060200190602002019073ffffffffffffffffffffffffffffffffffffffff16908173ffffffffffffffffffffffffffffffffffffffff168152505060606040519081016040528084815260200185815260200182815250600080876000191660001916815260200190815260200160002060008201518160000155602082015181600101908051906020019061044692919061074f565b5060408201518160020190805190602001906104639291906107cf565b50905050849150509392505050565b6060600080836000191660001916815260200190815260200160002060020180548060200260200160405190810160405280929190818152602001828054801561051157602002820191906000526020600020905b8160009054906101000a900473ffffffffffffffffffffffffffffffffffffffff1673ffffffffffffffffffffffffffffffffffffffff16815260200190600101908083116104c7575b50505050509050919050565b806000808460001916600019168152602001908152602001600020600101908051906020019061054e929190610859565b5060008083600019166000191681526020019081526020016000206002013390806001815401808255809150509060018203906000526020600020016000909192909190916101000a81548173ffffffffffffffffffffffffffffffffffffffff021916908373ffffffffffffffffffffffffffffffffffffffff160217905550505050565b6000602052806000526040600020600091509050806000015490806001018054600181600116156101000203166002900480601f0160208091040260200160405190810160405280929190818152602001828054600181600116156101000203166002900480156106865780601f1061065b57610100808354040283529160200191610686565b820191906000526020600020905b81548152906001019060200180831161066957829003601f168201915b5050505050905082565b606060008083600019166000191681526020019081526020016000206001018054600181600116156101000203166002900480601f0160208091040260200160405190810160405280929190818152602001828054600181600116156101000203166002900480156107435780601f1061071857610100808354040283529160200191610743565b820191906000526020600020905b81548152906001019060200180831161072657829003601f168201915b50505050509050919050565b828054600181600116156101000203166002900490600052602060002090601f016020900481019282601f1061079057805160ff19168380011785556107be565b828001600101855582156107be579182015b828111156107bd5782518255916020019190600101906107a2565b5b5090506107cb91906108d9565b5090565b828054828255906000526020600020908101928215610848579160200282015b828111156108475782518260006101000a81548173ffffffffffffffffffffffffffffffffffffffff021916908373ffffffffffffffffffffffffffffffffffffffff160217905550916020019190600101906107ef565b5b50905061085591906108fe565b5090565b828054600181600116156101000203166002900490600052602060002090601f016020900481019282601f1061089a57805160ff19168380011785556108c8565b828001600101855582156108c8579182015b828111156108c75782518255916020019190600101906108ac565b5b5090506108d591906108d9565b5090565b6108fb91905b808211156108f75760008160009055506001016108df565b5090565b90565b61093e91905b8082111561093a57600081816101000a81549073ffffffffffffffffffffffffffffffffffffffff021916905550600101610904565b5090565b905600a165627a7a72305820d79574546358f722849533cb1e24caa8de3f80d03698e16bb975c6f0cb384d990029",
  "source": "pragma solidity ^0.4.4;\r\n\r\ncontract AgreementContract{\r\n    struct claim {\r\n        uint timestamp;\r\n        bytes bigchain_hash;\r\n        address[] signatures;\r\n        //enum ClaimStage { initial, next };\r\n       // claimStage public currentStage;\r\n    }\r\n\r\n\r\n    mapping(bytes32 => claim) public claimS;\r\n    //event test_value(bytes32 indexed value1);\r\n\r\n\r\n    function addClaim( bytes32 claimId, bytes _bigchainHash, uint _timeStamp) public returns (bytes32) {\r\n        address[] memory sender = new address[](1);\r\n        sender[0] = msg.sender;\r\n        //bytes32 claimId = keccak256(abi.encodePacked(_policyNumber, _timeStamp));\r\n        claimS[claimId] = claim(_timeStamp, _bigchainHash, sender);\r\n        //emit test_value(claimId);\r\n        return claimId;\r\n    }\r\n\r\n    function signDocument(bytes32 _claimId, bytes _newBigchain_hash ) public {\r\n        //require(msg.sender == claimStatements[keccak256(agreementId)].signatures[0]);\r\n        claimS[_claimId].bigchain_hash = _newBigchain_hash;\r\n        claimS[_claimId].signatures.push(msg.sender);\r\n    }\r\n\r\n    function getSignatures(bytes32 _claimId) public view returns (address[]) {\r\n        return claimS[_claimId].signatures;\r\n    }\r\n\r\n    function getBigchainHash(bytes32 _claimId) public view returns (bytes) {\r\n        return claimS[_claimId].bigchain_hash;\r\n    }\r\n\r\n\r\n\r\n}\r\n",
  "sourcePath": "C:\\Users\\jeshw\\blockinsurance\\contracts\\blockinsurance\\AgreementContract.sol",
  "compiler": {
    "name": "solc",
    "version": "0.4.23+commit.124ca40d.Emscripten.clang"
  },
  "schemaVersion": "2.0.0",
  "updatedAt": "2018-07-10T18:04:32.820Z"
}