{
  "contractName": "AgreementContract",
  "abi": [
    {
      "constant": false,
      "inputs": [
        {
          "name": "_claimId",
          "type": "string"
        },
        {
          "name": "_newBigchain_hash",
          "type": "string"
        }
      ],
      "name": "signDocument",
      "outputs": [],
      "payable": false,
      "stateMutability": "nonpayable",
      "type": "function"
    },
    {
      "constant": true,
      "inputs": [
        {
          "name": "_claimId",
          "type": "string"
        }
      ],
      "name": "getSignatures",
      "outputs": [
        {
          "name": "",
          "type": "address[]"
        }
      ],
      "payable": false,
      "stateMutability": "view",
      "type": "function"
    }
  ],
  "bytecode": "0x608060405273bde95422681e4c3984635af2f2f35f8c44a4ddc96000806101000a81548173ffffffffffffffffffffffffffffffffffffffff021916908373ffffffffffffffffffffffffffffffffffffffff16021790555034801561006457600080fd5b5061052b806100746000396000f30060806040526004361061004c576000357c0100000000000000000000000000000000000000000000000000000000900463ffffffff1680632404608f146100515780638d58bf021461010f575b600080fd5b34801561005d57600080fd5b506100b8600480360381019080803590602001908201803590602001908080601f01602080910402602001604051908101604052809392919081815260200183838082843782019150505050505091929192905050506101be565b6040518080602001828103825283818151815260200191508051906020019060200280838360005b838110156100fb5780820151818401526020810190506100e0565b505050509050019250505060405180910390f35b34801561011b57600080fd5b506101bc600480360381019080803590602001908201803590602001908080601f0160208091040260200160405190810160405280939291908181526020018383808284378201915050505050509192919290803590602001908201803590602001908080601f016020809104026020016040519081016040528093929190818152602001838380828437820191505050505050919291929050505061034d565b005b60606000809054906101000a900473ffffffffffffffffffffffffffffffffffffffff1673ffffffffffffffffffffffffffffffffffffffff16632404608f836040518263ffffffff167c01000000000000000000000000000000000000000000000000000000000281526004018080602001828103825283818151815260200191508051906020019080838360005b8381101561026957808201518184015260208101905061024e565b50505050905090810190601f1680156102965780820380516001836020036101000a031916815260200191505b5092505050600060405180830381600087803b1580156102b557600080fd5b505af11580156102c9573d6000803e3d6000fd5b505050506040513d6000823e3d601f19601f8201168201806040525060208110156102f357600080fd5b81019080805164010000000081111561030b57600080fd5b8281019050602081018481111561032157600080fd5b815185602082028301116401000000008211171561033e57600080fd5b50509291905050509050919050565b6000809054906101000a900473ffffffffffffffffffffffffffffffffffffffff1673ffffffffffffffffffffffffffffffffffffffff16638009172b8383336040518463ffffffff167c01000000000000000000000000000000000000000000000000000000000281526004018080602001806020018473ffffffffffffffffffffffffffffffffffffffff1673ffffffffffffffffffffffffffffffffffffffff168152602001838103835286818151815260200191508051906020019080838360005b8381101561042e578082015181840152602081019050610413565b50505050905090810190601f16801561045b5780820380516001836020036101000a031916815260200191505b50838103825285818151815260200191508051906020019080838360005b83811015610494578082015181840152602081019050610479565b50505050905090810190601f1680156104c15780820380516001836020036101000a031916815260200191505b5095505050505050600060405180830381600087803b1580156104e357600080fd5b505af11580156104f7573d6000803e3d6000fd5b5050505050505600a165627a7a72305820a891c6ae61a373139319d18615a4b4d745bd925d4c603e13c72460cbe0c2da130029",
  "source": "pragma solidity ^0.4.4;\r\n\r\nimport \"./ClaimStorage.sol\";\r\nimport \"./Claim.sol\";\r\n\r\n\r\ncontract AgreementContract {\r\n\r\n    ClaimStorage claimStorage = ClaimStorage(0xbde95422681e4c3984635af2f2f35f8c44a4ddc9);         // The main ClaimAssist (The HUB) contract where primary persistant storage is maintained\r\n\r\n     function signDocument(string _claimId, string _newBigchain_hash ) public {\r\n        claimStorage.addSignatures(_claimId,_newBigchain_hash,msg.sender);\r\n    }\r\n\r\n    function getSignatures(string _claimId) public view returns (address[]) {\r\n        return claimStorage.getSignatures(_claimId);\r\n    }\r\n}\r\n",
  "sourcePath": "C:\\Users\\jeshw\\blockinsurance\\contracts\\claimAssist\\AgreementContract.sol",
  "compiler": {
    "name": "solc",
    "version": "0.4.23+commit.124ca40d.Emscripten.clang"
  },
  "schemaVersion": "2.0.0",
  "updatedAt": "2018-07-31T10:01:11.771Z"
}