{
  "contractName": "BankBlocKYC",
  "abi": [
    {
      "constant": false,
      "inputs": [
        {
          "name": "_customerAddress",
          "type": "address"
        }
      ],
      "name": "flagCustomer",
      "outputs": [],
      "payable": false,
      "stateMutability": "nonpayable",
      "type": "function"
    },
    {
      "constant": false,
      "inputs": [],
      "name": "kill",
      "outputs": [],
      "payable": false,
      "stateMutability": "nonpayable",
      "type": "function"
    },
    {
      "constant": false,
      "inputs": [
        {
          "name": "_storageContract",
          "type": "address"
        }
      ],
      "name": "setStorage",
      "outputs": [],
      "payable": false,
      "stateMutability": "nonpayable",
      "type": "function"
    },
    {
      "constant": false,
      "inputs": [
        {
          "name": "_bankAddress",
          "type": "address"
        }
      ],
      "name": "addBank",
      "outputs": [],
      "payable": false,
      "stateMutability": "nonpayable",
      "type": "function"
    },
    {
      "constant": true,
      "inputs": [
        {
          "name": "_customerAddress",
          "type": "address"
        }
      ],
      "name": "checkCustomer",
      "outputs": [
        {
          "name": "",
          "type": "bool"
        },
        {
          "name": "",
          "type": "bool"
        },
        {
          "name": "",
          "type": "bool"
        },
        {
          "name": "",
          "type": "address"
        }
      ],
      "payable": false,
      "stateMutability": "view",
      "type": "function"
    },
    {
      "constant": false,
      "inputs": [
        {
          "name": "_customerAddress",
          "type": "address"
        }
      ],
      "name": "verifyCustomer",
      "outputs": [],
      "payable": false,
      "stateMutability": "nonpayable",
      "type": "function"
    }
  ],
  "bytecode": "0x6060604052336000806101000a81548173ffffffffffffffffffffffffffffffffffffffff021916908373ffffffffffffffffffffffffffffffffffffffff160217905550610b78806100536000396000f300606060405260043610610078576000357c0100000000000000000000000000000000000000000000000000000000900463ffffffff168063416415bf1461007d57806341c0e1b5146100b65780639137c1a7146100cb5780639472239714610104578063a197c0421461013d578063daa6b8f1146101d7575b600080fd5b341561008857600080fd5b6100b4600480803573ffffffffffffffffffffffffffffffffffffffff16906020019091905050610210565b005b34156100c157600080fd5b6100c9610402565b005b34156100d657600080fd5b610102600480803573ffffffffffffffffffffffffffffffffffffffff16906020019091905050610497565b005b341561010f57600080fd5b61013b600480803573ffffffffffffffffffffffffffffffffffffffff16906020019091905050610536565b005b341561014857600080fd5b610174600480803573ffffffffffffffffffffffffffffffffffffffff16906020019091905050610664565b604051808515151515815260200184151515158152602001831515151581526020018273ffffffffffffffffffffffffffffffffffffffff1673ffffffffffffffffffffffffffffffffffffffff16815260200194505050505060405180910390f35b34156101e257600080fd5b61020e600480803573ffffffffffffffffffffffffffffffffffffffff16906020019091905050610856565b005b600160009054906101000a900473ffffffffffffffffffffffffffffffffffffffff1673ffffffffffffffffffffffffffffffffffffffff1663ec676a49336000604051602001526040518263ffffffff167c0100000000000000000000000000000000000000000000000000000000028152600401808273ffffffffffffffffffffffffffffffffffffffff1673ffffffffffffffffffffffffffffffffffffffff168152602001915050602060405180830381600087803b15156102d557600080fd5b6102c65a03f115156102e657600080fd5b5050506040518051905015156102fb57600080fd5b600160009054906101000a900473ffffffffffffffffffffffffffffffffffffffff1673ffffffffffffffffffffffffffffffffffffffff1663817dc7ba82336040518363ffffffff167c0100000000000000000000000000000000000000000000000000000000028152600401808373ffffffffffffffffffffffffffffffffffffffff1673ffffffffffffffffffffffffffffffffffffffff1681526020018273ffffffffffffffffffffffffffffffffffffffff1673ffffffffffffffffffffffffffffffffffffffff16815260200192505050600060405180830381600087803b15156103eb57600080fd5b6102c65a03f115156103fc57600080fd5b50505050565b6000809054906101000a900473ffffffffffffffffffffffffffffffffffffffff1673ffffffffffffffffffffffffffffffffffffffff163373ffffffffffffffffffffffffffffffffffffffff1614151561045d57600080fd5b6000809054906101000a900473ffffffffffffffffffffffffffffffffffffffff1673ffffffffffffffffffffffffffffffffffffffff16ff5b6000809054906101000a900473ffffffffffffffffffffffffffffffffffffffff1673ffffffffffffffffffffffffffffffffffffffff163373ffffffffffffffffffffffffffffffffffffffff161415156104f257600080fd5b80600160006101000a81548173ffffffffffffffffffffffffffffffffffffffff021916908373ffffffffffffffffffffffffffffffffffffffff16021790555050565b6000809054906101000a900473ffffffffffffffffffffffffffffffffffffffff1673ffffffffffffffffffffffffffffffffffffffff163373ffffffffffffffffffffffffffffffffffffffff1614151561059157600080fd5b600160009054906101000a900473ffffffffffffffffffffffffffffffffffffffff1673ffffffffffffffffffffffffffffffffffffffff166347380d46826040518263ffffffff167c0100000000000000000000000000000000000000000000000000000000028152600401808273ffffffffffffffffffffffffffffffffffffffff1673ffffffffffffffffffffffffffffffffffffffff168152602001915050600060405180830381600087803b151561064d57600080fd5b6102c65a03f1151561065e57600080fd5b50505050565b600080600080600160009054906101000a900473ffffffffffffffffffffffffffffffffffffffff1673ffffffffffffffffffffffffffffffffffffffff1663ec676a49336000604051602001526040518263ffffffff167c0100000000000000000000000000000000000000000000000000000000028152600401808273ffffffffffffffffffffffffffffffffffffffff1673ffffffffffffffffffffffffffffffffffffffff168152602001915050602060405180830381600087803b151561072f57600080fd5b6102c65a03f1151561074057600080fd5b50505060405180519050151561075557600080fd5b600160009054906101000a900473ffffffffffffffffffffffffffffffffffffffff1673ffffffffffffffffffffffffffffffffffffffff1663c06ed24f866000604051608001526040518263ffffffff167c0100000000000000000000000000000000000000000000000000000000028152600401808273ffffffffffffffffffffffffffffffffffffffff1673ffffffffffffffffffffffffffffffffffffffff168152602001915050608060405180830381600087803b151561081a57600080fd5b6102c65a03f1151561082b57600080fd5b5050506040518051906020018051906020018051906020018051905093509350935093509193509193565b600160009054906101000a900473ffffffffffffffffffffffffffffffffffffffff1673ffffffffffffffffffffffffffffffffffffffff1663ec676a49336000604051602001526040518263ffffffff167c0100000000000000000000000000000000000000000000000000000000028152600401808273ffffffffffffffffffffffffffffffffffffffff1673ffffffffffffffffffffffffffffffffffffffff168152602001915050602060405180830381600087803b151561091b57600080fd5b6102c65a03f1151561092c57600080fd5b50505060405180519050151561094157600080fd5b600160009054906101000a900473ffffffffffffffffffffffffffffffffffffffff1673ffffffffffffffffffffffffffffffffffffffff1663abbc549b82336040518363ffffffff167c0100000000000000000000000000000000000000000000000000000000028152600401808373ffffffffffffffffffffffffffffffffffffffff1673ffffffffffffffffffffffffffffffffffffffff1681526020018273ffffffffffffffffffffffffffffffffffffffff1673ffffffffffffffffffffffffffffffffffffffff16815260200192505050600060405180830381600087803b1515610a3157600080fd5b6102c65a03f11515610a4257600080fd5b505050600160009054906101000a900473ffffffffffffffffffffffffffffffffffffffff1673ffffffffffffffffffffffffffffffffffffffff1663f6f2b4ed82336040518363ffffffff167c0100000000000000000000000000000000000000000000000000000000028152600401808373ffffffffffffffffffffffffffffffffffffffff1673ffffffffffffffffffffffffffffffffffffffff1681526020018273ffffffffffffffffffffffffffffffffffffffff1673ffffffffffffffffffffffffffffffffffffffff16815260200192505050600060405180830381600087803b1515610b3557600080fd5b6102c65a03f11515610b4657600080fd5b505050505600a165627a7a7230582076a74171c3cd21f56c243b9deb5303f46cc18e0366a842e0674dab3c0b259d7d0029",
  "source": "pragma solidity ^0.4.17;\r\n\r\nimport \"./Mortal_BlocKYC.sol\";\r\nimport \"./Storage_BlocKYC.sol\";\r\n\r\n//change contract name\r\n//is bank method\r\ncontract BankBlocKYC is OwnedBlocKYC, MortalBlocKYC {\r\n    address private storageContractAddress;\r\n\r\n    function setStorage(address _storageContract) external onlyOwner {\r\n        storageContractAddress = _storageContract;\r\n    }\r\n\r\n    function addBank(address _bankAddress) external onlyOwner {\r\n        StorageBlocKYC(storageContractAddress).addBankToBankList(_bankAddress);\r\n    }\r\n\r\n    function checkCustomer(address _customerAddress) external view returns (bool, bool, bool, address) {\r\n        require((StorageBlocKYC(storageContractAddress)).isBank(msg.sender));\r\n        return((StorageBlocKYC(storageContractAddress)).getCustomerDetailsFromNetwork(_customerAddress));\r\n    }\r\n\r\n    function verifyCustomer(address _customerAddress) external {\r\n        require((StorageBlocKYC(storageContractAddress)).isBank(msg.sender));\r\n        (StorageBlocKYC(storageContractAddress)).verifyCustomer(_customerAddress, msg.sender);\r\n        (StorageBlocKYC(storageContractAddress)).verifyCustomerInNetwork(_customerAddress, msg.sender);\r\n    }\r\n\r\n    function flagCustomer(address _customerAddress) external {\r\n        require((StorageBlocKYC(storageContractAddress)).isBank(msg.sender));\r\n        (StorageBlocKYC(storageContractAddress)).flagCustomerInNetwork(_customerAddress, msg.sender);\r\n    }\r\n}",
  "sourcePath": "C:\\Prakktikum\\blc4pi-plc\\contracts\\BlocKYC\\Bank_BlocKYC.sol",
  "compiler": {
    "name": "solc",
    "version": "0.4.18+commit.9cf6e910.Emscripten.clang"
  },
  "schemaVersion": "1.0.1",
  "updatedAt": "2018-04-20T18:12:06.469Z"
}