{
  "contractName": "ClaimManager",
  "abi": [
    {
      "anonymous": false,
      "inputs": [
        {
          "indexed": true,
          "name": "_oldContractAddress",
          "type": "address"
        },
        {
          "indexed": true,
          "name": "_newContractAddress",
          "type": "address"
        },
        {
          "indexed": false,
          "name": "created",
          "type": "uint256"
        }
      ],
      "name": "ContractUpgraded",
      "type": "event"
    },
    {
      "anonymous": false,
      "inputs": [
        {
          "indexed": true,
          "name": "_contractAddress",
          "type": "address"
        },
        {
          "indexed": false,
          "name": "created",
          "type": "uint256"
        }
      ],
      "name": "ContractAdded",
      "type": "event"
    },
    {
      "constant": false,
      "inputs": [
        {
          "name": "_name",
          "type": "string"
        },
        {
          "name": "_upgradedContractAddress",
          "type": "address"
        },
        {
          "name": "_upgradedContractAbi",
          "type": "string"
        },
        {
          "name": "_forceEther",
          "type": "bool"
        }
      ],
      "name": "upgradeContract",
      "outputs": [],
      "payable": false,
      "stateMutability": "nonpayable",
      "type": "function"
    },
    {
      "constant": false,
      "inputs": [
        {
          "name": "_name",
          "type": "string"
        },
        {
          "name": "_contractAddress",
          "type": "address"
        },
        {
          "name": "_contractAbi",
          "type": "string"
        }
      ],
      "name": "addContract",
      "outputs": [],
      "payable": false,
      "stateMutability": "nonpayable",
      "type": "function"
    },
    {
      "constant": false,
      "inputs": [
        {
          "name": "_newHospitalAddress",
          "type": "address"
        }
      ],
      "name": "addHospitalToRegistry",
      "outputs": [],
      "payable": false,
      "stateMutability": "nonpayable",
      "type": "function"
    },
    {
      "constant": false,
      "inputs": [
        {
          "name": "_newPoliceAddress",
          "type": "address"
        }
      ],
      "name": "addPoliceToRegistry",
      "outputs": [],
      "payable": false,
      "stateMutability": "nonpayable",
      "type": "function"
    }
  ],
  "bytecode": "0x608060405273bde95422681e4c3984635af2f2f35f8c44a4ddc96000806101000a81548173ffffffffffffffffffffffffffffffffffffffff021916908373ffffffffffffffffffffffffffffffffffffffff16021790555034801561006457600080fd5b50610f31806100746000396000f300608060405260043610610062576000357c0100000000000000000000000000000000000000000000000000000000900463ffffffff1680632b394022146100675780637d6929e0146100aa5780638dc4d48d1461011d578063e979e71f14610160575b600080fd5b34801561007357600080fd5b506100a8600480360381019080803573ffffffffffffffffffffffffffffffffffffffff1690602001909291905050506101df565b005b3480156100b657600080fd5b5061011b600480360381019080803590602001908201803590602001919091929391929390803573ffffffffffffffffffffffffffffffffffffffff1690602001909291908035906020019082018035906020019190919293919293905050506102b6565b005b34801561012957600080fd5b5061015e600480360381019080803573ffffffffffffffffffffffffffffffffffffffff16906020019092919050505061086a565b005b34801561016c57600080fd5b506101dd600480360381019080803590602001908201803590602001919091929391929390803573ffffffffffffffffffffffffffffffffffffffff169060200190929190803590602001908201803590602001919091929391929390803515159060200190929190505050610941565b005b6000809054906101000a900473ffffffffffffffffffffffffffffffffffffffff1673ffffffffffffffffffffffffffffffffffffffff1663df414f3e826040518263ffffffff167c0100000000000000000000000000000000000000000000000000000000028152600401808273ffffffffffffffffffffffffffffffffffffffff1673ffffffffffffffffffffffffffffffffffffffff168152602001915050600060405180830381600087803b15801561029b57600080fd5b505af11580156102af573d6000803e3d6000fd5b5050505050565b60008060008573ffffffffffffffffffffffffffffffffffffffff16141515156102df57600080fd5b6000809054906101000a900473ffffffffffffffffffffffffffffffffffffffff1673ffffffffffffffffffffffffffffffffffffffff166321f8a721888860405180807f636f6e74726163742e6e616d6500000000000000000000000000000000000000815250600d0183838082843782019150509250505060405180910390206040518263ffffffff167c0100000000000000000000000000000000000000000000000000000000028152600401808260001916600019168152602001915050602060405180830381600087803b1580156103bb57600080fd5b505af11580156103cf573d6000803e3d6000fd5b505050506040513d60208110156103e557600080fd5b8101908080519060200190929190505050915060008273ffffffffffffffffffffffffffffffffffffffff1614151561041d57600080fd5b6000809054906101000a900473ffffffffffffffffffffffffffffffffffffffff1673ffffffffffffffffffffffffffffffffffffffff166321f8a7218660405180807f636f6e74726163742e61646472657373000000000000000000000000000000008152506010018273ffffffffffffffffffffffffffffffffffffffff1673ffffffffffffffffffffffffffffffffffffffff166c0100000000000000000000000002815260140191505060405180910390206040518263ffffffff167c0100000000000000000000000000000000000000000000000000000000028152600401808260001916600019168152602001915050602060405180830381600087803b15801561052d57600080fd5b505af1158015610541573d6000803e3d6000fd5b505050506040513d602081101561055757600080fd5b8101908080519060200190929190505050905060008173ffffffffffffffffffffffffffffffffffffffff1614151561058f57600080fd5b6000809054906101000a900473ffffffffffffffffffffffffffffffffffffffff1673ffffffffffffffffffffffffffffffffffffffff1663ca446dd9888860405180807f636f6e74726163742e6e616d6500000000000000000000000000000000000000815250600d018383808284378201915050925050506040518091039020876040518363ffffffff167c01000000000000000000000000000000000000000000000000000000000281526004018083600019166000191681526020018273ffffffffffffffffffffffffffffffffffffffff1673ffffffffffffffffffffffffffffffffffffffff16815260200192505050600060405180830381600087803b15801561069f57600080fd5b505af11580156106b3573d6000803e3d6000fd5b505050506000809054906101000a900473ffffffffffffffffffffffffffffffffffffffff1673ffffffffffffffffffffffffffffffffffffffff1663ca446dd98660405180807f636f6e74726163742e61646472657373000000000000000000000000000000008152506010018273ffffffffffffffffffffffffffffffffffffffff1673ffffffffffffffffffffffffffffffffffffffff166c010000000000000000000000000281526014019150506040518091039020876040518363ffffffff167c01000000000000000000000000000000000000000000000000000000000281526004018083600019166000191681526020018273ffffffffffffffffffffffffffffffffffffffff1673ffffffffffffffffffffffffffffffffffffffff16815260200192505050600060405180830381600087803b1580156107fb57600080fd5b505af115801561080f573d6000803e3d6000fd5b505050508473ffffffffffffffffffffffffffffffffffffffff167ff5258aee5f005d2bd983df8c969cd8db92fce883ceeab8c8a3f1e2f71aecb7ac426040518082815260200191505060405180910390a250505050505050565b6000809054906101000a900473ffffffffffffffffffffffffffffffffffffffff1673ffffffffffffffffffffffffffffffffffffffff166322e42a52826040518263ffffffff167c0100000000000000000000000000000000000000000000000000000000028152600401808273ffffffffffffffffffffffffffffffffffffffff1673ffffffffffffffffffffffffffffffffffffffff168152602001915050600060405180830381600087803b15801561092657600080fd5b505af115801561093a573d6000803e3d6000fd5b5050505050565b60008060009054906101000a900473ffffffffffffffffffffffffffffffffffffffff1673ffffffffffffffffffffffffffffffffffffffff166321f8a721888860405180807f636f6e74726163742e6e616d6500000000000000000000000000000000000000815250600d0183838082843782019150509250505060405180910390206040518263ffffffff167c0100000000000000000000000000000000000000000000000000000000028152600401808260001916600019168152602001915050602060405180830381600087803b158015610a1f57600080fd5b505af1158015610a33573d6000803e3d6000fd5b505050506040513d6020811015610a4957600080fd5b8101908080519060200190929190505050905060008173ffffffffffffffffffffffffffffffffffffffff1614151515610a8257600080fd5b8473ffffffffffffffffffffffffffffffffffffffff168173ffffffffffffffffffffffffffffffffffffffff1614151515610abd57600080fd5b811515610aeb5760008173ffffffffffffffffffffffffffffffffffffffff1631141515610aea57600080fd5b5b6000809054906101000a900473ffffffffffffffffffffffffffffffffffffffff1673ffffffffffffffffffffffffffffffffffffffff1663ca446dd9888860405180807f636f6e74726163742e6e616d6500000000000000000000000000000000000000815250600d018383808284378201915050925050506040518091039020876040518363ffffffff167c01000000000000000000000000000000000000000000000000000000000281526004018083600019166000191681526020018273ffffffffffffffffffffffffffffffffffffffff1673ffffffffffffffffffffffffffffffffffffffff16815260200192505050600060405180830381600087803b158015610bfb57600080fd5b505af1158015610c0f573d6000803e3d6000fd5b505050506000809054906101000a900473ffffffffffffffffffffffffffffffffffffffff1673ffffffffffffffffffffffffffffffffffffffff1663ca446dd98660405180807f636f6e74726163742e61646472657373000000000000000000000000000000008152506010018273ffffffffffffffffffffffffffffffffffffffff1673ffffffffffffffffffffffffffffffffffffffff166c010000000000000000000000000281526014019150506040518091039020876040518363ffffffff167c01000000000000000000000000000000000000000000000000000000000281526004018083600019166000191681526020018273ffffffffffffffffffffffffffffffffffffffff1673ffffffffffffffffffffffffffffffffffffffff16815260200192505050600060405180830381600087803b158015610d5757600080fd5b505af1158015610d6b573d6000803e3d6000fd5b505050506000809054906101000a900473ffffffffffffffffffffffffffffffffffffffff1673ffffffffffffffffffffffffffffffffffffffff16630e14a3768260405180807f636f6e74726163742e61646472657373000000000000000000000000000000008152506010018273ffffffffffffffffffffffffffffffffffffffff1673ffffffffffffffffffffffffffffffffffffffff166c0100000000000000000000000002815260140191505060405180910390206040518263ffffffff167c0100000000000000000000000000000000000000000000000000000000028152600401808260001916600019168152602001915050600060405180830381600087803b158015610e7f57600080fd5b505af1158015610e93573d6000803e3d6000fd5b505050508473ffffffffffffffffffffffffffffffffffffffff168173ffffffffffffffffffffffffffffffffffffffff167f81daf9335a6378204a43cc5467ad9282348d3864c1e3788e40b879f41b187aa5426040518082815260200191505060405180910390a3505050505050505600a165627a7a72305820a474415b8e584c00be8c052db1609e1736544f6a7b1b873d46f4b850c1d363480029",
  "source": "pragma solidity ^0.4.4;\r\n\r\nimport \"./ClaimStorage.sol\";\r\nimport \"./Claim.sol\";\r\n\r\n\r\ncontract ClaimManager {\r\n\r\n    ClaimStorage claimStorage = ClaimStorage(0xbde95422681e4c3984635af2f2f35f8c44a4ddc9);\r\n     /*** Events ****************/\r\n\r\n    event ContractUpgraded (\r\n        address indexed _oldContractAddress,                    // Address of the contract being upgraded\r\n        address indexed _newContractAddress,                    // Address of the new contract\r\n        uint256 created                                         // Creation timestamp\r\n    );\r\n\r\n    event ContractAdded (\r\n        address indexed _contractAddress,                       // Address of the contract added\r\n        uint256 created                                         // Creation timestamp\r\n    );\r\n\r\n    /**** Contract Upgrade Methods ***********/\r\n\r\n    /// @param _name The name of an existing contract in the network\r\n    /// @param _upgradedContractAddress The new contracts address that will replace the current one\r\n    /// @param _upgradedContractAbi The zlib compressed, base64 encoded ABI of the new contract\r\n    /// @param _forceEther Force the upgrade even if this contract has ether in it\r\n    function upgradeContract(string _name, address _upgradedContractAddress, string _upgradedContractAbi, bool _forceEther)  external {\r\n        // Get the current contracts address\r\n        address oldContractAddress = claimStorage.getAddress(keccak256(\"contract.name\", _name));\r\n        // Check it exists\r\n        require(oldContractAddress !=  0x0);\r\n        // Check it is not the contract's current address\r\n        require(oldContractAddress != _upgradedContractAddress);\r\n        // Firstly check the contract being upgraded does not have a balance, if it does, it needs to transfer it to the upgraded contract through a local upgrade method first\r\n        // Ether can be forcefully sent to any contract though (even if it doesn't have a payable method), so to prevent contracts that need upgrading and for some reason have a balance, use the force method to upgrade them\r\n        if (!_forceEther) {\r\n            require(oldContractAddress.balance == 0);\r\n        }\r\n        // Replace the address for the name lookup - contract addresses can be looked up by their name or verified by a reverse address lookup\r\n        claimStorage.setAddress(keccak256(\"contract.name\", _name), _upgradedContractAddress);\r\n        // Replace the stored contract ABI\r\n        //claimStorage.setString(keccak256(\"contract.abi\", _name), _upgradedContractAbi);\r\n        // Add the new contract address for a direct verification using the address (used in ClaimAssist to verify its a legit contract using only the msg.sender)\r\n        claimStorage.setAddress(keccak256(\"contract.address\", _upgradedContractAddress), _upgradedContractAddress);\r\n        // Remove the old contract address verification\r\n        claimStorage.deleteAddress(keccak256(\"contract.address\", oldContractAddress));\r\n        // Log it\r\n        emit ContractUpgraded(oldContractAddress, _upgradedContractAddress, now);\r\n    }\r\n\r\n    /// @param _name The name of the new contract\r\n    /// @param _contractAddress The address of the new contract\r\n    /// @param _contractAbi The zlib compressed, base64 encoded ABI of the new contract\r\n    function addContract(string _name, address _contractAddress, string _contractAbi)  external {\r\n        // Check the contract address\r\n        require(_contractAddress != 0x0);\r\n        // Check the name is not already in use\r\n        address existingContractName = claimStorage.getAddress(keccak256(\"contract.name\", _name));\r\n        require(existingContractName == 0x0);\r\n        // Check the address is not already in use\r\n        address existingContractAddress = claimStorage.getAddress(keccak256(\"contract.address\", _contractAddress));\r\n        require(existingContractAddress == 0x0);\r\n        // Set contract name, address and ABI in storage\r\n        claimStorage.setAddress(keccak256(\"contract.name\", _name), _contractAddress);\r\n        claimStorage.setAddress(keccak256(\"contract.address\", _contractAddress), _contractAddress);\r\n      //  claimStorage.setString(keccak256(\"contract.abi\", _name), _contractAbi);\r\n        // Log it\r\n        emit ContractAdded(_contractAddress, now);\r\n    }\r\n\r\n    function addHospitalToRegistry(address _newHospitalAddress) public{\r\n        claimStorage.setHospitalBool(_newHospitalAddress);\r\n    }\r\n\r\n    function addPoliceToRegistry(address _newPoliceAddress) public{\r\n        claimStorage.setPoliceBool(_newPoliceAddress);\r\n    }\r\n\r\n}\r\n",
  "sourcePath": "C:\\Users\\jeshw\\blockinsurance\\contracts\\claimAssist\\ClaimManager.sol",
  "compiler": {
    "name": "solc",
    "version": "0.4.23+commit.124ca40d.Emscripten.clang"
  },
  "schemaVersion": "2.0.0",
  "updatedAt": "2018-07-31T10:01:11.779Z"
}