{
  "contractName": "Claim",
  "abi": [
    {
      "constant": false,
      "inputs": [
        {
          "name": "claimId",
          "type": "bytes32"
        },
        {
          "name": "_bigchainHash",
          "type": "bytes"
        }
      ],
      "name": "addClaim",
      "outputs": [],
      "payable": false,
      "stateMutability": "nonpayable",
      "type": "function"
    },
    {
      "constant": true,
      "inputs": [
        {
          "name": "_claimId",
          "type": "bytes32"
        }
      ],
      "name": "getBigchainHash",
      "outputs": [
        {
          "name": "",
          "type": "bytes"
        }
      ],
      "payable": false,
      "stateMutability": "view",
      "type": "function"
    }
  ],
  "bytecode": "0x6080604052732467636bea0f3c2441227eedbffac59f11d54a806000806101000a81548173ffffffffffffffffffffffffffffffffffffffff021916908373ffffffffffffffffffffffffffffffffffffffff16021790555034801561006457600080fd5b50610425806100746000396000f30060806040526004361061004c576000357c0100000000000000000000000000000000000000000000000000000000900463ffffffff1680631949c3e814610051578063f7e13da8146100c8575b600080fd5b34801561005d57600080fd5b506100c66004803603810190808035600019169060200190929190803590602001908201803590602001908080601f0160208091040260200160405190810160405280939291908181526020018383808284378201915050505050509192919290505050610172565b005b3480156100d457600080fd5b506100f760048036038101908080356000191690602001909291905050506102c7565b6040518080602001828103825283818151815260200191508051906020019080838360005b8381101561013757808201518184015260208101905061011c565b50505050905090810190601f1680156101645780820380516001836020036101000a031916815260200191505b509250505060405180910390f35b6000809054906101000a900473ffffffffffffffffffffffffffffffffffffffff1673ffffffffffffffffffffffffffffffffffffffff1663b35497db8383336040518463ffffffff167c0100000000000000000000000000000000000000000000000000000000028152600401808460001916600019168152602001806020018373ffffffffffffffffffffffffffffffffffffffff1673ffffffffffffffffffffffffffffffffffffffff168152602001828103825284818151815260200191508051906020019080838360005b8381101561025d578082015181840152602081019050610242565b50505050905090810190601f16801561028a5780820380516001836020036101000a031916815260200191505b50945050505050600060405180830381600087803b1580156102ab57600080fd5b505af11580156102bf573d6000803e3d6000fd5b505050505050565b60606000809054906101000a900473ffffffffffffffffffffffffffffffffffffffff1673ffffffffffffffffffffffffffffffffffffffff1663f7e13da8836040518263ffffffff167c0100000000000000000000000000000000000000000000000000000000028152600401808260001916600019168152602001915050600060405180830381600087803b15801561036157600080fd5b505af1158015610375573d6000803e3d6000fd5b505050506040513d6000823e3d601f19601f82011682018060405250602081101561039f57600080fd5b8101908080516401000000008111156103b757600080fd5b828101905060208101848111156103cd57600080fd5b81518560018202830111640100000000821117156103ea57600080fd5b505092919050505090509190505600a165627a7a723058200c46812476a756614c7acf379c0c6dd239f82ef81e7c0a28ecce15187e774cc40029",
  "source": "pragma solidity ^0.4.4;\r\n\r\nimport \"./ClaimStorage.sol\";\r\n\r\n\r\ncontract Claim{\r\n\r\n    ClaimStorage claimStorage = ClaimStorage(0x2467636bea0f3c2441227eedbffac59f11d54a80);         // The main ClaimAssist (The HUB) contract where primary persistant storage is maintained\r\n    bytes hash;\r\n\r\n    function addClaim( bytes32 claimId, bytes _bigchainHash) public {\r\n       claimStorage.setClaim(claimId, _bigchainHash, msg.sender);\r\n    }\r\n\r\n    function getBigchainHash(bytes32 _claimId) public view returns (bytes) {\r\n        return claimStorage.getBigchainHash(_claimId);\r\n\r\n    }\r\n\r\n\r\n\r\n}\r\n",
  "sourcePath": "C:\\Users\\dheer\\Documents\\BlockchainAPC\\blockinsurance\\contracts\\claimAssist\\Claim.sol",
  "compiler": {
    "name": "solc",
    "version": "0.4.23+commit.124ca40d.Emscripten.clang"
  },
  "schemaVersion": "2.0.0",
  "updatedAt": "2018-07-18T01:14:34.485Z"
}