{
  "contractName": "ClaimStorage",
  "abi": [
    {
      "constant": true,
      "inputs": [
        {
          "name": "_key",
          "type": "bytes32"
        }
      ],
      "name": "getAddress",
      "outputs": [
        {
          "name": "",
          "type": "address"
        }
      ],
      "payable": false,
      "stateMutability": "view",
      "type": "function"
    },
    {
      "constant": true,
      "inputs": [
        {
          "name": "_claimId",
          "type": "string"
        }
      ],
      "name": "getBigchainHash",
      "outputs": [
        {
          "name": "",
          "type": "string"
        }
      ],
      "payable": false,
      "stateMutability": "view",
      "type": "function"
    },
    {
      "constant": true,
      "inputs": [
        {
          "name": "_claimId",
          "type": "string"
        }
      ],
      "name": "getSignatures",
      "outputs": [
        {
          "name": "",
          "type": "address[]"
        }
      ],
      "payable": false,
      "stateMutability": "view",
      "type": "function"
    },
    {
      "constant": true,
      "inputs": [
        {
          "name": "_hospitalAddress",
          "type": "address"
        }
      ],
      "name": "getHospitalBool",
      "outputs": [
        {
          "name": "",
          "type": "bool"
        }
      ],
      "payable": false,
      "stateMutability": "view",
      "type": "function"
    },
    {
      "constant": true,
      "inputs": [
        {
          "name": "_policeAddress",
          "type": "address"
        }
      ],
      "name": "getPoliceBool",
      "outputs": [
        {
          "name": "",
          "type": "bool"
        }
      ],
      "payable": false,
      "stateMutability": "view",
      "type": "function"
    },
    {
      "constant": false,
      "inputs": [
        {
          "name": "_key",
          "type": "bytes32"
        },
        {
          "name": "_value",
          "type": "address"
        }
      ],
      "name": "setAddress",
      "outputs": [],
      "payable": false,
      "stateMutability": "nonpayable",
      "type": "function"
    },
    {
      "constant": false,
      "inputs": [
        {
          "name": "_claimId",
          "type": "string"
        },
        {
          "name": "_newBigchain_hash",
          "type": "string"
        }
      ],
      "name": "setNewHash",
      "outputs": [],
      "payable": false,
      "stateMutability": "nonpayable",
      "type": "function"
    },
    {
      "constant": false,
      "inputs": [
        {
          "name": "_claimId",
          "type": "string"
        },
        {
          "name": "_newBigchain_hash",
          "type": "string"
        },
        {
          "name": "_sender",
          "type": "address"
        }
      ],
      "name": "addSignatures",
      "outputs": [],
      "payable": false,
      "stateMutability": "nonpayable",
      "type": "function"
    },
    {
      "constant": false,
      "inputs": [
        {
          "name": "_claimId",
          "type": "string"
        },
        {
          "name": "_bigchainHash",
          "type": "string"
        },
        {
          "name": "_senderAddress",
          "type": "address"
        }
      ],
      "name": "setClaim",
      "outputs": [],
      "payable": false,
      "stateMutability": "nonpayable",
      "type": "function"
    },
    {
      "constant": false,
      "inputs": [
        {
          "name": "_hospitalAddress",
          "type": "address"
        }
      ],
      "name": "setHospitalBool",
      "outputs": [],
      "payable": false,
      "stateMutability": "nonpayable",
      "type": "function"
    },
    {
      "constant": false,
      "inputs": [
        {
          "name": "_policeAddress",
          "type": "address"
        }
      ],
      "name": "setPoliceBool",
      "outputs": [],
      "payable": false,
      "stateMutability": "nonpayable",
      "type": "function"
    },
    {
      "constant": false,
      "inputs": [
        {
          "name": "_key",
          "type": "bytes32"
        }
      ],
      "name": "deleteAddress",
      "outputs": [],
      "payable": false,
      "stateMutability": "nonpayable",
      "type": "function"
    },
    {
      "constant": false,
      "inputs": [
        {
          "name": "_claimId",
          "type": "string"
        }
      ],
      "name": "deleteClaim",
      "outputs": [],
      "payable": false,
      "stateMutability": "nonpayable",
      "type": "function"
    }
  ],
  "bytecode": "0x608060405234801561001057600080fd5b50611f87806100206000396000f3006080604052600436106100c5576000357c0100000000000000000000000000000000000000000000000000000000900463ffffffff1680630e14a376146100ca578063143d4233146100fb57806321f8a7211461015657806322e42a52146101c75780632404608f1461020a578063442475081461029a5780638009172b1461030d578063991e518514610380578063aecdff15146103db578063b3076b9414610416578063b3420d0a146104ca578063ca446dd91461051d578063df414f3e1461056e575b600080fd5b3480156100d657600080fd5b506100f960048036038101908080356000191690602001909291905050506105b1565b005b34801561010757600080fd5b5061013c600480360381019080803573ffffffffffffffffffffffffffffffffffffffff1690602001909291905050506107a0565b604051808215151515815260200191505060405180910390f35b34801561016257600080fd5b5061018560048036038101908080356000191690602001909291905050506107f6565b604051808273ffffffffffffffffffffffffffffffffffffffff1673ffffffffffffffffffffffffffffffffffffffff16815260200191505060405180910390f35b3480156101d357600080fd5b50610208600480360381019080803573ffffffffffffffffffffffffffffffffffffffff16906020019092919050505061083a565b005b34801561021657600080fd5b50610243600480360381019080803590602001908201803590602001919091929391929390505050610a44565b6040518080602001828103825283818151815260200191508051906020019060200280838360005b8381101561028657808201518184015260208101905061026b565b505050509050019250505060405180910390f35b3480156102a657600080fd5b5061030b600480360381019080803590602001908201803590602001919091929391929390803590602001908201803590602001919091929391929390803573ffffffffffffffffffffffffffffffffffffffff169060200190929190505050610b79565b005b34801561031957600080fd5b5061037e600480360381019080803590602001908201803590602001919091929391929390803590602001908201803590602001919091929391929390803573ffffffffffffffffffffffffffffffffffffffff169060200190929190505050610ee9565b005b34801561038c57600080fd5b506103c1600480360381019080803573ffffffffffffffffffffffffffffffffffffffff16906020019092919050505061125f565b604051808215151515815260200191505060405180910390f35b3480156103e757600080fd5b506104146004803603810190808035906020019082018035906020019190919293919293905050506112b5565b005b34801561042257600080fd5b5061044f600480360381019080803590602001908201803590602001919091929391929390505050611536565b6040518080602001828103825283818151815260200191508051906020019080838360005b8381101561048f578082015181840152602081019050610474565b50505050905090810190601f1680156104bc5780820380516001836020036101000a031916815260200191505b509250505060405180910390f35b3480156104d657600080fd5b5061051b60048036038101908080359060200190820180359060200191909192939192939080359060200190820180359060200191909192939192939050505061167f565b005b34801561052957600080fd5b5061056c6004803603810190808035600019169060200190929190803573ffffffffffffffffffffffffffffffffffffffff1690602001909291905050506118ea565b005b34801561057a57600080fd5b506105af600480360381019080803573ffffffffffffffffffffffffffffffffffffffff169060200190929190505050611af6565b005b600115156001600060405180807f636f6e74726163742e73746f726167652e696e697469616c6973656400000000815250601c01905060405180910390206000191660001916815260200190815260200160002060009054906101000a900460ff16151514156107605760008060003360405160200180807f636f6e74726163742e61646472657373000000000000000000000000000000008152506010018273ffffffffffffffffffffffffffffffffffffffff1673ffffffffffffffffffffffffffffffffffffffff166c010000000000000000000000000281526014019150506040516020818303038152906040526040518082805190602001908083835b6020831015156106d857805182526020820191506020810190506020830392506106b3565b6001836020036101000a03801982511681845116808217855250505050505090500191505060405180910390206000191660001916815260200190815260200160002060009054906101000a900473ffffffffffffffffffffffffffffffffffffffff1673ffffffffffffffffffffffffffffffffffffffff161415151561075f57600080fd5b5b600080826000191660001916815260200190815260200160002060006101000a81549073ffffffffffffffffffffffffffffffffffffffff021916905550565b6000600260008373ffffffffffffffffffffffffffffffffffffffff1673ffffffffffffffffffffffffffffffffffffffff16815260200190815260200160002060009054906101000a900460ff169050919050565b6000806000836000191660001916815260200190815260200160002060009054906101000a900473ffffffffffffffffffffffffffffffffffffffff169050919050565b600115156001600060405180807f636f6e74726163742e73746f726167652e696e697469616c6973656400000000815250601c01905060405180910390206000191660001916815260200190815260200160002060009054906101000a900460ff16151514156109e95760008060003360405160200180807f636f6e74726163742e61646472657373000000000000000000000000000000008152506010018273ffffffffffffffffffffffffffffffffffffffff1673ffffffffffffffffffffffffffffffffffffffff166c010000000000000000000000000281526014019150506040516020818303038152906040526040518082805190602001908083835b602083101515610961578051825260208201915060208101905060208303925061093c565b6001836020036101000a03801982511681845116808217855250505050505090500191505060405180910390206000191660001916815260200190815260200160002060009054906101000a900473ffffffffffffffffffffffffffffffffffffffff1673ffffffffffffffffffffffffffffffffffffffff16141515156109e857600080fd5b5b6001600360008373ffffffffffffffffffffffffffffffffffffffff1673ffffffffffffffffffffffffffffffffffffffff16815260200190815260200160002060006101000a81548160ff02191690831515021790555050565b6060600460008484604051602001808383808284378201915050925050506040516020818303038152906040526040518082805190602001908083835b602083101515610aa65780518252602082019150602081019050602083039250610a81565b6001836020036101000a038019825116818451168082178552505050505050905001915050604051809103902060001916600019168152602001908152602001600020600201805480602002602001604051908101604052809291908181526020018280548015610b6c57602002820191906000526020600020905b8160009054906101000a900473ffffffffffffffffffffffffffffffffffffffff1673ffffffffffffffffffffffffffffffffffffffff1681526020019060010190808311610b22575b5050505050905092915050565b6060600115156001600060405180807f636f6e74726163742e73746f726167652e696e697469616c6973656400000000815250601c01905060405180910390206000191660001916815260200190815260200160002060009054906101000a900460ff1615151415610d2a5760008060003360405160200180807f636f6e74726163742e61646472657373000000000000000000000000000000008152506010018273ffffffffffffffffffffffffffffffffffffffff1673ffffffffffffffffffffffffffffffffffffffff166c010000000000000000000000000281526014019150506040516020818303038152906040526040518082805190602001908083835b602083101515610ca25780518252602082019150602081019050602083039250610c7d565b6001836020036101000a03801982511681845116808217855250505050505090500191505060405180910390206000191660001916815260200190815260200160002060009054906101000a900473ffffffffffffffffffffffffffffffffffffffff1673ffffffffffffffffffffffffffffffffffffffff1614151515610d2957600080fd5b5b6001604051908082528060200260200182016040528015610d5a5781602001602082028038833980820191505090505b50905081816000815181101515610d6d57fe5b9060200190602002019073ffffffffffffffffffffffffffffffffffffffff16908173ffffffffffffffffffffffffffffffffffffffff168152505060606040519081016040528042815260200185858080601f016020809104026020016040519081016040528093929190818152602001838380828437820191505050505050815260200182815250600460008888604051602001808383808284378201915050925050506040516020818303038152906040526040518082805190602001908083835b602083101515610e575780518252602082019150602081019050602083039250610e32565b6001836020036101000a038019825116818451168082178552505050505050905001915050604051809103902060001916600019168152602001908152602001600020600082015181600001556020820151816001019080519060200190610ec0929190611d00565b506040820151816002019080519060200190610edd929190611d80565b50905050505050505050565b600115156001600060405180807f636f6e74726163742e73746f726167652e696e697469616c6973656400000000815250601c01905060405180910390206000191660001916815260200190815260200160002060009054906101000a900460ff16151514156110985760008060003360405160200180807f636f6e74726163742e61646472657373000000000000000000000000000000008152506010018273ffffffffffffffffffffffffffffffffffffffff1673ffffffffffffffffffffffffffffffffffffffff166c010000000000000000000000000281526014019150506040516020818303038152906040526040518082805190602001908083835b6020831015156110105780518252602082019150602081019050602083039250610feb565b6001836020036101000a03801982511681845116808217855250505050505090500191505060405180910390206000191660001916815260200190815260200160002060009054906101000a900473ffffffffffffffffffffffffffffffffffffffff1673ffffffffffffffffffffffffffffffffffffffff161415151561109757600080fd5b5b8282600460008888604051602001808383808284378201915050925050506040516020818303038152906040526040518082805190602001908083835b6020831015156110fa57805182526020820191506020810190506020830392506110d5565b6001836020036101000a038019825116818451168082178552505050505050905001915050604051809103902060001916600019168152602001908152602001600020600101919061114d929190611e0a565b50600460008686604051602001808383808284378201915050925050506040516020818303038152906040526040518082805190602001908083835b6020831015156111ae5780518252602082019150602081019050602083039250611189565b6001836020036101000a0380198251168184511680821785525050505050509050019150506040518091039020600019166000191681526020019081526020016000206002018190806001815401808255809150509060018203906000526020600020016000909192909190916101000a81548173ffffffffffffffffffffffffffffffffffffffff021916908373ffffffffffffffffffffffffffffffffffffffff160217905550505050505050565b6000600360008373ffffffffffffffffffffffffffffffffffffffff1673ffffffffffffffffffffffffffffffffffffffff16815260200190815260200160002060009054906101000a900460ff169050919050565b600115156001600060405180807f636f6e74726163742e73746f726167652e696e697469616c6973656400000000815250601c01905060405180910390206000191660001916815260200190815260200160002060009054906101000a900460ff16151514156114645760008060003360405160200180807f636f6e74726163742e61646472657373000000000000000000000000000000008152506010018273ffffffffffffffffffffffffffffffffffffffff1673ffffffffffffffffffffffffffffffffffffffff166c010000000000000000000000000281526014019150506040516020818303038152906040526040518082805190602001908083835b6020831015156113dc57805182526020820191506020810190506020830392506113b7565b6001836020036101000a03801982511681845116808217855250505050505090500191505060405180910390206000191660001916815260200190815260200160002060009054906101000a900473ffffffffffffffffffffffffffffffffffffffff1673ffffffffffffffffffffffffffffffffffffffff161415151561146357600080fd5b5b600460008383604051602001808383808284378201915050925050506040516020818303038152906040526040518082805190602001908083835b6020831015156114c4578051825260208201915060208101905060208303925061149f565b6001836020036101000a0380198251168184511680821785525050505050509050019150506040518091039020600019166000191681526020019081526020016000206000808201600090556001820160006115209190611e8a565b6002820160006115309190611ed2565b50505050565b6060600460008484604051602001808383808284378201915050925050506040516020818303038152906040526040518082805190602001908083835b6020831015156115985780518252602082019150602081019050602083039250611573565b6001836020036101000a0380198251168184511680821785525050505050509050019150506040518091039020600019166000191681526020019081526020016000206001018054600181600116156101000203166002900480601f0160208091040260200160405190810160405280929190818152602001828054600181600116156101000203166002900480156116725780601f1061164757610100808354040283529160200191611672565b820191906000526020600020905b81548152906001019060200180831161165557829003601f168201915b5050505050905092915050565b600115156001600060405180807f636f6e74726163742e73746f726167652e696e697469616c6973656400000000815250601c01905060405180910390206000191660001916815260200190815260200160002060009054906101000a900460ff161515141561182e5760008060003360405160200180807f636f6e74726163742e61646472657373000000000000000000000000000000008152506010018273ffffffffffffffffffffffffffffffffffffffff1673ffffffffffffffffffffffffffffffffffffffff166c010000000000000000000000000281526014019150506040516020818303038152906040526040518082805190602001908083835b6020831015156117a65780518252602082019150602081019050602083039250611781565b6001836020036101000a03801982511681845116808217855250505050505090500191505060405180910390206000191660001916815260200190815260200160002060009054906101000a900473ffffffffffffffffffffffffffffffffffffffff1673ffffffffffffffffffffffffffffffffffffffff161415151561182d57600080fd5b5b8181600460008787604051602001808383808284378201915050925050506040516020818303038152906040526040518082805190602001908083835b602083101515611890578051825260208201915060208101905060208303925061186b565b6001836020036101000a03801982511681845116808217855250505050505090500191505060405180910390206000191660001916815260200190815260200160002060010191906118e3929190611e0a565b5050505050565b600115156001600060405180807f636f6e74726163742e73746f726167652e696e697469616c6973656400000000815250601c01905060405180910390206000191660001916815260200190815260200160002060009054906101000a900460ff1615151415611a995760008060003360405160200180807f636f6e74726163742e61646472657373000000000000000000000000000000008152506010018273ffffffffffffffffffffffffffffffffffffffff1673ffffffffffffffffffffffffffffffffffffffff166c010000000000000000000000000281526014019150506040516020818303038152906040526040518082805190602001908083835b602083101515611a1157805182526020820191506020810190506020830392506119ec565b6001836020036101000a03801982511681845116808217855250505050505090500191505060405180910390206000191660001916815260200190815260200160002060009054906101000a900473ffffffffffffffffffffffffffffffffffffffff1673ffffffffffffffffffffffffffffffffffffffff1614151515611a9857600080fd5b5b80600080846000191660001916815260200190815260200160002060006101000a81548173ffffffffffffffffffffffffffffffffffffffff021916908373ffffffffffffffffffffffffffffffffffffffff1602179055505050565b600115156001600060405180807f636f6e74726163742e73746f726167652e696e697469616c6973656400000000815250601c01905060405180910390206000191660001916815260200190815260200160002060009054906101000a900460ff1615151415611ca55760008060003360405160200180807f636f6e74726163742e61646472657373000000000000000000000000000000008152506010018273ffffffffffffffffffffffffffffffffffffffff1673ffffffffffffffffffffffffffffffffffffffff166c010000000000000000000000000281526014019150506040516020818303038152906040526040518082805190602001908083835b602083101515611c1d5780518252602082019150602081019050602083039250611bf8565b6001836020036101000a03801982511681845116808217855250505050505090500191505060405180910390206000191660001916815260200190815260200160002060009054906101000a900473ffffffffffffffffffffffffffffffffffffffff1673ffffffffffffffffffffffffffffffffffffffff1614151515611ca457600080fd5b5b6001600260008373ffffffffffffffffffffffffffffffffffffffff1673ffffffffffffffffffffffffffffffffffffffff16815260200190815260200160002060006101000a81548160ff02191690831515021790555050565b828054600181600116156101000203166002900490600052602060002090601f016020900481019282601f10611d4157805160ff1916838001178555611d6f565b82800160010185558215611d6f579182015b82811115611d6e578251825591602001919060010190611d53565b5b509050611d7c9190611ef3565b5090565b828054828255906000526020600020908101928215611df9579160200282015b82811115611df85782518260006101000a81548173ffffffffffffffffffffffffffffffffffffffff021916908373ffffffffffffffffffffffffffffffffffffffff16021790555091602001919060010190611da0565b5b509050611e069190611f18565b5090565b828054600181600116156101000203166002900490600052602060002090601f016020900481019282601f10611e4b57803560ff1916838001178555611e79565b82800160010185558215611e79579182015b82811115611e78578235825591602001919060010190611e5d565b5b509050611e869190611ef3565b5090565b50805460018160011615610100020316600290046000825580601f10611eb05750611ecf565b601f016020900490600052602060002090810190611ece9190611ef3565b5b50565b5080546000825590600052602060002090810190611ef09190611ef3565b50565b611f1591905b80821115611f11576000816000905550600101611ef9565b5090565b90565b611f5891905b80821115611f5457600081816101000a81549073ffffffffffffffffffffffffffffffffffffffff021916905550600101611f1e565b5090565b905600a165627a7a723058203ec56b58d3321d2f222c5eda96cf0fcc7651af188b1118106f35ff8e60d2c3260029",
  "source": "pragma solidity ^0.4.4;\r\n\r\ncontract ClaimStorage {\r\n\r\n    struct claim {\r\n        uint timestamp;\r\n        string bigchain_hash;\r\n        address[] signatures;\r\n    }\r\n\r\n\r\n    /**** Storage Types *******/\r\n    mapping(bytes32 => address)    private addressStorage;\r\n    mapping(bytes32 => bool)       private boolStorage;\r\n    mapping(address => bool)       private policeRegistry;\r\n    mapping(address => bool)       private hospitalRegistry;\r\n    mapping(bytes32 => claim)      private claims;\r\n\r\n\r\n\r\n    /*** Modifiers ************/\r\n\r\n\r\n     /*modifier onlyOwner() {\r\n        roleCheck(\"owner\", msg.sender);\r\n        _;\r\n    }*/\r\n\r\n    /// Only allow access from the latest version of a contract in the network after deployment\r\n    modifier onlyLatestClaimAssistContract() {\r\n       // The owner and other contracts are only allowed to set the storage upon deployment to register the initial contracts/settings, afterwards their direct access is disabled\r\n        if (boolStorage[keccak256(\"contract.storage.initialised\")] == true) {\r\n            // Make sure the access is permitted to only contracts in our Dapp\r\n            require(addressStorage[keccak256(abi.encodePacked(\"contract.address\", msg.sender))] != 0x0);\r\n        }\r\n        _;\r\n    }\r\n\r\n\r\n\r\n\r\n    /// @dev constructor\r\n    //constructor() public payable{\r\n        // Set the main owner upon deployment\r\n      //  boolStorage[keccak256(abi.encodePacked(\"access.role\", \"owner\", msg.sender))] = true;\r\n   // }\r\n\r\n\r\n   /* function roleHas(string _role, address _address) internal view returns (bool) {\r\n        return claimStorage.getBool(keccak256(\"access.role\", _role, _address));\r\n    }\r\n\r\n       /**\r\n    * @dev Check if an address has this role, reverts if it doesn't\r\n\r\n    function roleCheck(string _role, address _address) view internal {\r\n        require(roleHas(_role, _address) == true);\r\n    } */\r\n     /**** Get Methods ***********/\r\n\r\n    /// @param _key The key for the record\r\n    function getAddress(bytes32 _key) external view returns (address) {\r\n        return addressStorage[_key];\r\n    }\r\n\r\n    /// The key for the record\r\n    function getBigchainHash(string _claimId) external view returns (string) {\r\n        return claims[keccak256(abi.encodePacked(_claimId))].bigchain_hash;\r\n    }\r\n\r\n    ///  The key for the record\r\n    function getSignatures(string _claimId) external view returns (address[]) {\r\n        return claims[keccak256(abi.encodePacked(_claimId))].signatures;\r\n    }\r\n\r\n    function getHospitalBool(address _hospitalAddress) external view returns (bool) {\r\n        return hospitalRegistry[_hospitalAddress];\r\n    }\r\n\r\n     function getPoliceBool(address _policeAddress) external view returns (bool) {\r\n        return policeRegistry[_policeAddress];\r\n    }\r\n\r\n\r\n\r\n    /**** Set Methods ***********/\r\n\r\n    /// @param _key The key for the record\r\n    function setAddress(bytes32 _key, address _value) onlyLatestClaimAssistContract external {\r\n        addressStorage[_key] = _value;\r\n    }\r\n\r\n\r\n    function setNewHash(string _claimId, string _newBigchain_hash) onlyLatestClaimAssistContract external {\r\n        claims[keccak256(abi.encodePacked(_claimId))].bigchain_hash = _newBigchain_hash;\r\n    }\r\n\r\n    ///  The key for the record\r\n    function addSignatures(string _claimId, string _newBigchain_hash,address _sender) onlyLatestClaimAssistContract external {\r\n        claims[keccak256(abi.encodePacked(_claimId))].bigchain_hash = _newBigchain_hash;\r\n        claims[keccak256(abi.encodePacked(_claimId))].signatures.push(_sender);\r\n    }\r\n\r\n    /// The key for the record\r\n    function setClaim(string _claimId, string _bigchainHash,address _senderAddress) onlyLatestClaimAssistContract  external{\r\n        address[] memory sender = new address[](1);\r\n        sender[0] = _senderAddress;\r\n        claims[keccak256(abi.encodePacked(_claimId))] = claim(now, _bigchainHash, sender);\r\n    }\r\n\r\n    function setHospitalBool(address _hospitalAddress) onlyLatestClaimAssistContract external {\r\n        hospitalRegistry[_hospitalAddress] = true;\r\n    }\r\n\r\n    function setPoliceBool(address _policeAddress) onlyLatestClaimAssistContract external {\r\n        policeRegistry[_policeAddress] = true;\r\n    }\r\n\r\n    /**** Delete Methods ***********/\r\n\r\n    ///  The key for the record\r\n    function deleteAddress(bytes32 _key) onlyLatestClaimAssistContract external {\r\n        delete addressStorage[_key];\r\n    }\r\n\r\n\r\n    function deleteClaim(string _claimId) onlyLatestClaimAssistContract external {\r\n        delete claims[keccak256(abi.encodePacked(_claimId))];\r\n    }\r\n\r\n}\r\n",
  "sourcePath": "C:\\Users\\jeshw\\blockinsurance\\contracts\\claimAssist\\ClaimStorage.sol",
  "compiler": {
    "name": "solc",
    "version": "0.4.23+commit.124ca40d.Emscripten.clang"
  },
  "schemaVersion": "2.0.0",
  "updatedAt": "2018-07-31T10:01:11.784Z"
}