{
  "contractName": "ClaimStorage",
  "abi": [
    {
      "constant": true,
      "inputs": [
        {
          "name": "_key",
          "type": "bytes32"
        }
      ],
      "name": "getAddress",
      "outputs": [
        {
          "name": "",
          "type": "address"
        }
      ],
      "payable": false,
      "stateMutability": "view",
      "type": "function"
    },
    {
      "constant": true,
      "inputs": [
        {
          "name": "_claimId",
          "type": "bytes32"
        }
      ],
      "name": "getBigchainHash",
      "outputs": [
        {
          "name": "",
          "type": "bytes"
        }
      ],
      "payable": false,
      "stateMutability": "view",
      "type": "function"
    },
    {
      "constant": true,
      "inputs": [
        {
          "name": "_claimId",
          "type": "bytes32"
        }
      ],
      "name": "getSignatures",
      "outputs": [
        {
          "name": "",
          "type": "address[]"
        }
      ],
      "payable": false,
      "stateMutability": "view",
      "type": "function"
    },
    {
      "constant": true,
      "inputs": [
        {
          "name": "_hospitalAddress",
          "type": "address"
        }
      ],
      "name": "getHospitalBool",
      "outputs": [
        {
          "name": "",
          "type": "bool"
        }
      ],
      "payable": false,
      "stateMutability": "view",
      "type": "function"
    },
    {
      "constant": true,
      "inputs": [
        {
          "name": "_policeAddress",
          "type": "address"
        }
      ],
      "name": "getPoliceBool",
      "outputs": [
        {
          "name": "",
          "type": "bool"
        }
      ],
      "payable": false,
      "stateMutability": "view",
      "type": "function"
    },
    {
      "constant": false,
      "inputs": [
        {
          "name": "_key",
          "type": "bytes32"
        },
        {
          "name": "_value",
          "type": "address"
        }
      ],
      "name": "setAddress",
      "outputs": [],
      "payable": false,
      "stateMutability": "nonpayable",
      "type": "function"
    },
    {
      "constant": false,
      "inputs": [
        {
          "name": "_claimId",
          "type": "bytes32"
        },
        {
          "name": "_newBigchain_hash",
          "type": "bytes"
        }
      ],
      "name": "setNewHash",
      "outputs": [],
      "payable": false,
      "stateMutability": "nonpayable",
      "type": "function"
    },
    {
      "constant": false,
      "inputs": [
        {
          "name": "_claimId",
          "type": "bytes32"
        },
        {
          "name": "_newBigchain_hash",
          "type": "bytes"
        },
        {
          "name": "_sender",
          "type": "address"
        }
      ],
      "name": "addSignatures",
      "outputs": [],
      "payable": false,
      "stateMutability": "nonpayable",
      "type": "function"
    },
    {
      "constant": false,
      "inputs": [
        {
          "name": "_claimId",
          "type": "bytes32"
        },
        {
          "name": "_bigchainHash",
          "type": "bytes"
        },
        {
          "name": "_senderAddress",
          "type": "address"
        }
      ],
      "name": "setClaim",
      "outputs": [],
      "payable": false,
      "stateMutability": "nonpayable",
      "type": "function"
    },
    {
      "constant": false,
      "inputs": [
        {
          "name": "_hospitalAddress",
          "type": "address"
        }
      ],
      "name": "setHospitalBool",
      "outputs": [],
      "payable": false,
      "stateMutability": "nonpayable",
      "type": "function"
    },
    {
      "constant": false,
      "inputs": [
        {
          "name": "_policeAddress",
          "type": "address"
        }
      ],
      "name": "setPoliceBool",
      "outputs": [],
      "payable": false,
      "stateMutability": "nonpayable",
      "type": "function"
    },
    {
      "constant": false,
      "inputs": [
        {
          "name": "_key",
          "type": "bytes32"
        }
      ],
      "name": "deleteAddress",
      "outputs": [],
      "payable": false,
      "stateMutability": "nonpayable",
      "type": "function"
    },
    {
      "constant": false,
      "inputs": [
        {
          "name": "_claimId",
          "type": "bytes32"
        }
      ],
      "name": "deleteClaim",
      "outputs": [],
      "payable": false,
      "stateMutability": "nonpayable",
      "type": "function"
    }
  ],
  "bytecode": "0x608060405234801561001057600080fd5b50611b8d806100206000396000f3006080604052600436106100c5576000357c0100000000000000000000000000000000000000000000000000000000900463ffffffff16806309c44269146100ca5780630e14a37614610113578063143d42331461014457806321f8a7211461019f57806322e42a5214610210578063991e5185146102535780639bc51068146102ae578063b35497db14610334578063ca446dd91461039d578063df414f3e146103ee578063ed016b1314610431578063f3df69541461049a578063f7e13da8146104cb575b600080fd5b3480156100d657600080fd5b506101116004803603810190808035600019169060200190929190803590602001908201803590602001919091929391929390505050610575565b005b34801561011f57600080fd5b506101426004803603810190808035600019169060200190929190505050610757565b005b34801561015057600080fd5b50610185600480360381019080803573ffffffffffffffffffffffffffffffffffffffff169060200190929190505050610946565b604051808215151515815260200191505060405180910390f35b3480156101ab57600080fd5b506101ce600480360381019080803560001916906020019092919050505061099c565b604051808273ffffffffffffffffffffffffffffffffffffffff1673ffffffffffffffffffffffffffffffffffffffff16815260200191505060405180910390f35b34801561021c57600080fd5b50610251600480360381019080803573ffffffffffffffffffffffffffffffffffffffff1690602001909291905050506109e0565b005b34801561025f57600080fd5b50610294600480360381019080803573ffffffffffffffffffffffffffffffffffffffff169060200190929190505050610bea565b604051808215151515815260200191505060405180910390f35b3480156102ba57600080fd5b506102dd6004803603810190808035600019169060200190929190505050610c40565b6040518080602001828103825283818151815260200191508051906020019060200280838360005b83811015610320578082015181840152602081019050610305565b505050509050019250505060405180910390f35b34801561034057600080fd5b5061039b6004803603810190808035600019169060200190929190803590602001908201803590602001919091929391929390803573ffffffffffffffffffffffffffffffffffffffff169060200190929190505050610cec565b005b3480156103a957600080fd5b506103ec6004803603810190808035600019169060200190929190803573ffffffffffffffffffffffffffffffffffffffff169060200190929190505050610fd3565b005b3480156103fa57600080fd5b5061042f600480360381019080803573ffffffffffffffffffffffffffffffffffffffff1690602001909291905050506111df565b005b34801561043d57600080fd5b506104986004803603810190808035600019169060200190929190803590602001908201803590602001919091929391929390803573ffffffffffffffffffffffffffffffffffffffff1690602001909291905050506113e9565b005b3480156104a657600080fd5b506104c9600480360381019080803560001916906020019092919050505061164e565b005b3480156104d757600080fd5b506104fa6004803603810190808035600019169060200190929190505050611846565b6040518080602001828103825283818151815260200191508051906020019080838360005b8381101561053a57808201518184015260208101905061051f565b50505050905090810190601f1680156105675780820380516001836020036101000a031916815260200191505b509250505060405180910390f35b600115156001600060405180807f636f6e74726163742e73746f726167652e696e697469616c6973656400000000815250601c01905060405180910390206000191660001916815260200190815260200160002060009054906101000a900460ff16151514156107245760008060003360405160200180807f636f6e74726163742e61646472657373000000000000000000000000000000008152506010018273ffffffffffffffffffffffffffffffffffffffff1673ffffffffffffffffffffffffffffffffffffffff166c010000000000000000000000000281526014019150506040516020818303038152906040526040518082805190602001908083835b60208310151561069c5780518252602082019150602081019050602083039250610677565b6001836020036101000a03801982511681845116808217855250505050505090500191505060405180910390206000191660001916815260200190815260200160002060009054906101000a900473ffffffffffffffffffffffffffffffffffffffff1673ffffffffffffffffffffffffffffffffffffffff161415151561072357600080fd5b5b81816004600086600019166000191681526020019081526020016000206001019190610751929190611906565b50505050565b600115156001600060405180807f636f6e74726163742e73746f726167652e696e697469616c6973656400000000815250601c01905060405180910390206000191660001916815260200190815260200160002060009054906101000a900460ff16151514156109065760008060003360405160200180807f636f6e74726163742e61646472657373000000000000000000000000000000008152506010018273ffffffffffffffffffffffffffffffffffffffff1673ffffffffffffffffffffffffffffffffffffffff166c010000000000000000000000000281526014019150506040516020818303038152906040526040518082805190602001908083835b60208310151561087e5780518252602082019150602081019050602083039250610859565b6001836020036101000a03801982511681845116808217855250505050505090500191505060405180910390206000191660001916815260200190815260200160002060009054906101000a900473ffffffffffffffffffffffffffffffffffffffff1673ffffffffffffffffffffffffffffffffffffffff161415151561090557600080fd5b5b600080826000191660001916815260200190815260200160002060006101000a81549073ffffffffffffffffffffffffffffffffffffffff021916905550565b6000600260008373ffffffffffffffffffffffffffffffffffffffff1673ffffffffffffffffffffffffffffffffffffffff16815260200190815260200160002060009054906101000a900460ff169050919050565b6000806000836000191660001916815260200190815260200160002060009054906101000a900473ffffffffffffffffffffffffffffffffffffffff169050919050565b600115156001600060405180807f636f6e74726163742e73746f726167652e696e697469616c6973656400000000815250601c01905060405180910390206000191660001916815260200190815260200160002060009054906101000a900460ff1615151415610b8f5760008060003360405160200180807f636f6e74726163742e61646472657373000000000000000000000000000000008152506010018273ffffffffffffffffffffffffffffffffffffffff1673ffffffffffffffffffffffffffffffffffffffff166c010000000000000000000000000281526014019150506040516020818303038152906040526040518082805190602001908083835b602083101515610b075780518252602082019150602081019050602083039250610ae2565b6001836020036101000a03801982511681845116808217855250505050505090500191505060405180910390206000191660001916815260200190815260200160002060009054906101000a900473ffffffffffffffffffffffffffffffffffffffff1673ffffffffffffffffffffffffffffffffffffffff1614151515610b8e57600080fd5b5b6001600360008373ffffffffffffffffffffffffffffffffffffffff1673ffffffffffffffffffffffffffffffffffffffff16815260200190815260200160002060006101000a81548160ff02191690831515021790555050565b6000600360008373ffffffffffffffffffffffffffffffffffffffff1673ffffffffffffffffffffffffffffffffffffffff16815260200190815260200160002060009054906101000a900460ff169050919050565b6060600460008360001916600019168152602001908152602001600020600201805480602002602001604051908101604052809291908181526020018280548015610ce057602002820191906000526020600020905b8160009054906101000a900473ffffffffffffffffffffffffffffffffffffffff1673ffffffffffffffffffffffffffffffffffffffff1681526020019060010190808311610c96575b50505050509050919050565b6060600115156001600060405180807f636f6e74726163742e73746f726167652e696e697469616c6973656400000000815250601c01905060405180910390206000191660001916815260200190815260200160002060009054906101000a900460ff1615151415610e9d5760008060003360405160200180807f636f6e74726163742e61646472657373000000000000000000000000000000008152506010018273ffffffffffffffffffffffffffffffffffffffff1673ffffffffffffffffffffffffffffffffffffffff166c010000000000000000000000000281526014019150506040516020818303038152906040526040518082805190602001908083835b602083101515610e155780518252602082019150602081019050602083039250610df0565b6001836020036101000a03801982511681845116808217855250505050505090500191505060405180910390206000191660001916815260200190815260200160002060009054906101000a900473ffffffffffffffffffffffffffffffffffffffff1673ffffffffffffffffffffffffffffffffffffffff1614151515610e9c57600080fd5b5b6001604051908082528060200260200182016040528015610ecd5781602001602082028038833980820191505090505b50905081816000815181101515610ee057fe5b9060200190602002019073ffffffffffffffffffffffffffffffffffffffff16908173ffffffffffffffffffffffffffffffffffffffff168152505060606040519081016040528042815260200185858080601f016020809104026020016040519081016040528093929190818152602001838380828437820191505050505050815260200182815250600460008760001916600019168152602001908152602001600020600082015181600001556020820151816001019080519060200190610fab929190611986565b506040820151816002019080519060200190610fc8929190611a06565b509050505050505050565b600115156001600060405180807f636f6e74726163742e73746f726167652e696e697469616c6973656400000000815250601c01905060405180910390206000191660001916815260200190815260200160002060009054906101000a900460ff16151514156111825760008060003360405160200180807f636f6e74726163742e61646472657373000000000000000000000000000000008152506010018273ffffffffffffffffffffffffffffffffffffffff1673ffffffffffffffffffffffffffffffffffffffff166c010000000000000000000000000281526014019150506040516020818303038152906040526040518082805190602001908083835b6020831015156110fa57805182526020820191506020810190506020830392506110d5565b6001836020036101000a03801982511681845116808217855250505050505090500191505060405180910390206000191660001916815260200190815260200160002060009054906101000a900473ffffffffffffffffffffffffffffffffffffffff1673ffffffffffffffffffffffffffffffffffffffff161415151561118157600080fd5b5b80600080846000191660001916815260200190815260200160002060006101000a81548173ffffffffffffffffffffffffffffffffffffffff021916908373ffffffffffffffffffffffffffffffffffffffff1602179055505050565b600115156001600060405180807f636f6e74726163742e73746f726167652e696e697469616c6973656400000000815250601c01905060405180910390206000191660001916815260200190815260200160002060009054906101000a900460ff161515141561138e5760008060003360405160200180807f636f6e74726163742e61646472657373000000000000000000000000000000008152506010018273ffffffffffffffffffffffffffffffffffffffff1673ffffffffffffffffffffffffffffffffffffffff166c010000000000000000000000000281526014019150506040516020818303038152906040526040518082805190602001908083835b60208310151561130657805182526020820191506020810190506020830392506112e1565b6001836020036101000a03801982511681845116808217855250505050505090500191505060405180910390206000191660001916815260200190815260200160002060009054906101000a900473ffffffffffffffffffffffffffffffffffffffff1673ffffffffffffffffffffffffffffffffffffffff161415151561138d57600080fd5b5b6001600260008373ffffffffffffffffffffffffffffffffffffffff1673ffffffffffffffffffffffffffffffffffffffff16815260200190815260200160002060006101000a81548160ff02191690831515021790555050565b600115156001600060405180807f636f6e74726163742e73746f726167652e696e697469616c6973656400000000815250601c01905060405180910390206000191660001916815260200190815260200160002060009054906101000a900460ff16151514156115985760008060003360405160200180807f636f6e74726163742e61646472657373000000000000000000000000000000008152506010018273ffffffffffffffffffffffffffffffffffffffff1673ffffffffffffffffffffffffffffffffffffffff166c010000000000000000000000000281526014019150506040516020818303038152906040526040518082805190602001908083835b60208310151561151057805182526020820191506020810190506020830392506114eb565b6001836020036101000a03801982511681845116808217855250505050505090500191505060405180910390206000191660001916815260200190815260200160002060009054906101000a900473ffffffffffffffffffffffffffffffffffffffff1673ffffffffffffffffffffffffffffffffffffffff161415151561159757600080fd5b5b828260046000876000191660001916815260200190815260200160002060010191906115c5929190611906565b506004600085600019166000191681526020019081526020016000206002018190806001815401808255809150509060018203906000526020600020016000909192909190916101000a81548173ffffffffffffffffffffffffffffffffffffffff021916908373ffffffffffffffffffffffffffffffffffffffff1602179055505050505050565b600115156001600060405180807f636f6e74726163742e73746f726167652e696e697469616c6973656400000000815250601c01905060405180910390206000191660001916815260200190815260200160002060009054906101000a900460ff16151514156117fd5760008060003360405160200180807f636f6e74726163742e61646472657373000000000000000000000000000000008152506010018273ffffffffffffffffffffffffffffffffffffffff1673ffffffffffffffffffffffffffffffffffffffff166c010000000000000000000000000281526014019150506040516020818303038152906040526040518082805190602001908083835b6020831015156117755780518252602082019150602081019050602083039250611750565b6001836020036101000a03801982511681845116808217855250505050505090500191505060405180910390206000191660001916815260200190815260200160002060009054906101000a900473ffffffffffffffffffffffffffffffffffffffff1673ffffffffffffffffffffffffffffffffffffffff16141515156117fc57600080fd5b5b6004600082600019166000191681526020019081526020016000206000808201600090556001820160006118319190611a90565b6002820160006118419190611ad8565b505050565b60606004600083600019166000191681526020019081526020016000206001018054600181600116156101000203166002900480601f0160208091040260200160405190810160405280929190818152602001828054600181600116156101000203166002900480156118fa5780601f106118cf576101008083540402835291602001916118fa565b820191906000526020600020905b8154815290600101906020018083116118dd57829003601f168201915b50505050509050919050565b828054600181600116156101000203166002900490600052602060002090601f016020900481019282601f1061194757803560ff1916838001178555611975565b82800160010185558215611975579182015b82811115611974578235825591602001919060010190611959565b5b5090506119829190611af9565b5090565b828054600181600116156101000203166002900490600052602060002090601f016020900481019282601f106119c757805160ff19168380011785556119f5565b828001600101855582156119f5579182015b828111156119f45782518255916020019190600101906119d9565b5b509050611a029190611af9565b5090565b828054828255906000526020600020908101928215611a7f579160200282015b82811115611a7e5782518260006101000a81548173ffffffffffffffffffffffffffffffffffffffff021916908373ffffffffffffffffffffffffffffffffffffffff16021790555091602001919060010190611a26565b5b509050611a8c9190611b1e565b5090565b50805460018160011615610100020316600290046000825580601f10611ab65750611ad5565b601f016020900490600052602060002090810190611ad49190611af9565b5b50565b5080546000825590600052602060002090810190611af69190611af9565b50565b611b1b91905b80821115611b17576000816000905550600101611aff565b5090565b90565b611b5e91905b80821115611b5a57600081816101000a81549073ffffffffffffffffffffffffffffffffffffffff021916905550600101611b24565b5090565b905600a165627a7a72305820adcf35828e92553798d2965ed28a41bd92f7541cd032b8e47b57be453209d8fa0029",
  "source": "pragma solidity ^0.4.4;\r\n\r\ncontract ClaimStorage {\r\n    \r\n    struct claim {\r\n        uint timestamp;\r\n        bytes bigchain_hash;\r\n        address[] signatures;\r\n    }\r\n\r\n\r\n    /**** Storage Types *******/\r\n    mapping(bytes32 => address)    private addressStorage;\r\n    mapping(bytes32 => bool)       private boolStorage;\r\n    mapping(address => bool)       private policeRegistry;\r\n    mapping(address => bool)       private hospitalRegistry;\r\n    mapping(bytes32 => claim)      private claims;\r\n    \r\n\r\n\r\n    /*** Modifiers ************/\r\n    \r\n    \r\n     /*modifier onlyOwner() {\r\n        roleCheck(\"owner\", msg.sender);\r\n        _;\r\n    }*/\r\n\r\n    /// Only allow access from the latest version of a contract in the network after deployment\r\n    modifier onlyLatestClaimAssistContract() {\r\n       // The owner and other contracts are only allowed to set the storage upon deployment to register the initial contracts/settings, afterwards their direct access is disabled\r\n        if (boolStorage[keccak256(\"contract.storage.initialised\")] == true) {\r\n            // Make sure the access is permitted to only contracts in our Dapp\r\n            require(addressStorage[keccak256(abi.encodePacked(\"contract.address\", msg.sender))] != 0x0);\r\n        }\r\n        _;\r\n    }\r\n\r\n\r\n\r\n\r\n    /// @dev constructor\r\n    //constructor() public payable{\r\n        // Set the main owner upon deployment\r\n      //  boolStorage[keccak256(abi.encodePacked(\"access.role\", \"owner\", msg.sender))] = true;\r\n   // }\r\n    \r\n    \r\n   /* function roleHas(string _role, address _address) internal view returns (bool) {\r\n        return claimStorage.getBool(keccak256(\"access.role\", _role, _address));\r\n    }\r\n    \r\n       /**\r\n    * @dev Check if an address has this role, reverts if it doesn't\r\n    \r\n    function roleCheck(string _role, address _address) view internal {\r\n        require(roleHas(_role, _address) == true);\r\n    } */\r\n     /**** Get Methods ***********/\r\n   \r\n    /// @param _key The key for the record\r\n    function getAddress(bytes32 _key) external view returns (address) {\r\n        return addressStorage[_key];\r\n    }\r\n\r\n    /// The key for the record\r\n    function getBigchainHash(bytes32 _claimId) external view returns (bytes) {\r\n        return claims[_claimId].bigchain_hash;\r\n    }\r\n\r\n    ///  The key for the record\r\n    function getSignatures(bytes32 _claimId) external view returns (address[]) {\r\n        return claims[_claimId].signatures;\r\n    }\r\n    \r\n    function getHospitalBool(address _hospitalAddress) external view returns (bool) {\r\n        return hospitalRegistry[_hospitalAddress];\r\n    }\r\n    \r\n     function getPoliceBool(address _policeAddress) external view returns (bool) {\r\n        return policeRegistry[_policeAddress];\r\n    }\r\n    \r\n    \r\n\r\n    /**** Set Methods ***********/\r\n\r\n    /// @param _key The key for the record\r\n    function setAddress(bytes32 _key, address _value) onlyLatestClaimAssistContract external {\r\n        addressStorage[_key] = _value;\r\n    }\r\n\r\n    \r\n    function setNewHash(bytes32 _claimId, bytes _newBigchain_hash) onlyLatestClaimAssistContract external {\r\n        claims[_claimId].bigchain_hash = _newBigchain_hash;\r\n    }\r\n    \r\n    ///  The key for the record\r\n    function addSignatures(bytes32 _claimId, bytes _newBigchain_hash,address _sender) onlyLatestClaimAssistContract external {\r\n        claims[_claimId].bigchain_hash = _newBigchain_hash;\r\n        claims[_claimId].signatures.push(_sender);\r\n    }\r\n    \r\n    /// The key for the record\r\n    function setClaim(bytes32 _claimId, bytes _bigchainHash,address _senderAddress) onlyLatestClaimAssistContract  external{\r\n        address[] memory sender = new address[](1);\r\n        sender[0] = _senderAddress;\r\n        claims[_claimId] = claim(now, _bigchainHash, sender);\r\n    }\r\n    \r\n    function setHospitalBool(address _hospitalAddress) onlyLatestClaimAssistContract external {\r\n        hospitalRegistry[_hospitalAddress] = true;\r\n    }\r\n    \r\n    function setPoliceBool(address _policeAddress) onlyLatestClaimAssistContract external {\r\n        policeRegistry[_policeAddress] = true;\r\n    }\r\n\r\n    /**** Delete Methods ***********/\r\n    \r\n    ///  The key for the record\r\n    function deleteAddress(bytes32 _key) onlyLatestClaimAssistContract external {\r\n        delete addressStorage[_key];\r\n    }\r\n\r\n   \r\n    function deleteClaim(bytes32 _claimId) onlyLatestClaimAssistContract external {\r\n        delete claims[_claimId];\r\n    }\r\n\r\n}",
  "sourcePath": "C:\\Users\\dheer\\Documents\\BlockchainAPC\\blockinsurance\\contracts\\claimAssist\\ClaimStorage.sol",
  "compiler": {
    "name": "solc",
    "version": "0.4.23+commit.124ca40d.Emscripten.clang"
  },
  "schemaVersion": "2.0.0",
  "updatedAt": "2018-07-18T01:14:34.488Z"
}