{
  "contractName": "Creator",
  "abi": [
    {
      "constant": false,
      "inputs": [
        {
          "name": "trialId",
          "type": "bytes32"
        },
        {
          "name": "trialHash",
          "type": "bytes32"
        }
      ],
      "name": "addTrialData",
      "outputs": [],
      "payable": false,
      "stateMutability": "nonpayable",
      "type": "function"
    },
    {
      "constant": true,
      "inputs": [],
      "name": "isHospital",
      "outputs": [
        {
          "name": "",
          "type": "bool"
        }
      ],
      "payable": false,
      "stateMutability": "view",
      "type": "function"
    },
    {
      "constant": false,
      "inputs": [],
      "name": "kill",
      "outputs": [],
      "payable": false,
      "stateMutability": "nonpayable",
      "type": "function"
    },
    {
      "constant": false,
      "inputs": [
        {
          "name": "_doctorAddress",
          "type": "address"
        }
      ],
      "name": "addDoctor",
      "outputs": [],
      "payable": false,
      "stateMutability": "nonpayable",
      "type": "function"
    },
    {
      "constant": false,
      "inputs": [
        {
          "name": "_trialFormId",
          "type": "bytes32"
        }
      ],
      "name": "createTrialForm",
      "outputs": [],
      "payable": false,
      "stateMutability": "nonpayable",
      "type": "function"
    },
    {
      "constant": false,
      "inputs": [
        {
          "name": "_hospitalAddress",
          "type": "address"
        },
        {
          "name": "_hospitalName",
          "type": "string"
        }
      ],
      "name": "createHospital",
      "outputs": [],
      "payable": false,
      "stateMutability": "nonpayable",
      "type": "function"
    },
    {
      "constant": true,
      "inputs": [],
      "name": "isDoctor",
      "outputs": [
        {
          "name": "",
          "type": "bool"
        }
      ],
      "payable": false,
      "stateMutability": "view",
      "type": "function"
    },
    {
      "constant": true,
      "inputs": [
        {
          "name": "_addr",
          "type": "address"
        }
      ],
      "name": "getHospital",
      "outputs": [
        {
          "name": "",
          "type": "string"
        },
        {
          "name": "",
          "type": "address[]"
        }
      ],
      "payable": false,
      "stateMutability": "view",
      "type": "function"
    }
  ],
  "bytecode": "0x6060604052336000806101000a81548173ffffffffffffffffffffffffffffffffffffffff021916908373ffffffffffffffffffffffffffffffffffffffff160217905550610ea6806100536000396000f30060606040526004361061008e576000357c0100000000000000000000000000000000000000000000000000000000900463ffffffff168063201185711461009357806336311c33146100c757806341c0e1b5146100f45780634780468f146101095780637552c87c14610142578063b22e9eae14610169578063b986b608146101e5578063c49b09b514610212575b600080fd5b341561009e57600080fd5b6100c56004808035600019169060200190919080356000191690602001909190505061030c565b005b34156100d257600080fd5b6100da61043a565b604051808215151515815260200191505060405180910390f35b34156100ff57600080fd5b610107610491565b005b341561011457600080fd5b610140600480803573ffffffffffffffffffffffffffffffffffffffff16906020019091905050610526565b005b341561014d57600080fd5b61016760048080356000191690602001909190505061067f565b005b341561017457600080fd5b6101e3600480803573ffffffffffffffffffffffffffffffffffffffff1690602001909190803590602001908201803590602001908080601f016020809104026020016040519081016040528093929190818152602001838380828437820191505050505050919050506107c3565b005b34156101f057600080fd5b6101f8610963565b604051808215151515815260200191505060405180910390f35b341561021d57600080fd5b610249600480803573ffffffffffffffffffffffffffffffffffffffff169060200190919050506109b7565b604051808060200180602001838103835285818151815260200191508051906020019080838360005b8381101561028d578082015181840152602081019050610272565b50505050905090810190601f1680156102ba5780820380516001836020036101000a031916815260200191505b50838103825284818151815260200191508051906020019060200280838360005b838110156102f65780820151818401526020810190506102db565b5050505090500194505050505060405180910390f35b60011515600260003373ffffffffffffffffffffffffffffffffffffffff1673ffffffffffffffffffffffffffffffffffffffff16815260200190815260200160002060009054906101000a900460ff16151514151561036b57600080fd5b60056000836000191660001916815260200190815260200160002080548060010182816103989190610bdc565b916000526020600020906002020160006040805190810160405280856000191681526020013373ffffffffffffffffffffffffffffffffffffffff1681525090919091506000820151816000019060001916905560208201518160010160006101000a81548173ffffffffffffffffffffffffffffffffffffffff021916908373ffffffffffffffffffffffffffffffffffffffff1602179055505050505050565b6000600160003373ffffffffffffffffffffffffffffffffffffffff1673ffffffffffffffffffffffffffffffffffffffff16815260200190815260200160002060020160009054906101000a900460ff16905090565b6000809054906101000a900473ffffffffffffffffffffffffffffffffffffffff1673ffffffffffffffffffffffffffffffffffffffff163373ffffffffffffffffffffffffffffffffffffffff161415156104ec57600080fd5b6000809054906101000a900473ffffffffffffffffffffffffffffffffffffffff1673ffffffffffffffffffffffffffffffffffffffff16ff5b600160003373ffffffffffffffffffffffffffffffffffffffff1673ffffffffffffffffffffffffffffffffffffffff16815260200190815260200160002060020160009054906101000a900460ff16151561058157600080fd5b600160003373ffffffffffffffffffffffffffffffffffffffff1673ffffffffffffffffffffffffffffffffffffffff16815260200190815260200160002060010180548060010182816105d59190610c0e565b9160005260206000209001600083909190916101000a81548173ffffffffffffffffffffffffffffffffffffffff021916908373ffffffffffffffffffffffffffffffffffffffff160217905550506001600260008373ffffffffffffffffffffffffffffffffffffffff1673ffffffffffffffffffffffffffffffffffffffff16815260200190815260200160002060006101000a81548160ff02191690831515021790555050565b60011515600260003373ffffffffffffffffffffffffffffffffffffffff1673ffffffffffffffffffffffffffffffffffffffff16815260200190815260200160002060009054906101000a900460ff1615151415156106de57600080fd5b6001600460003373ffffffffffffffffffffffffffffffffffffffff1673ffffffffffffffffffffffffffffffffffffffff1681526020019081526020016000206000836000191660001916815260200190815260200160002060006101000a81548160ff021916908315150217905550600160036000836000191660001916815260200190815260200160002060003373ffffffffffffffffffffffffffffffffffffffff1673ffffffffffffffffffffffffffffffffffffffff16815260200190815260200160002060006101000a81548160ff02191690831515021790555050565b6000809054906101000a900473ffffffffffffffffffffffffffffffffffffffff1673ffffffffffffffffffffffffffffffffffffffff163373ffffffffffffffffffffffffffffffffffffffff1614151561081e57600080fd5b60606040519081016040528082815260200160068054806020026020016040519081016040528092919081815260200182805480156108b257602002820191906000526020600020905b8160009054906101000a900473ffffffffffffffffffffffffffffffffffffffff1673ffffffffffffffffffffffffffffffffffffffff1681526020019060010190808311610868575b5050505050815260200160011515815250600160008473ffffffffffffffffffffffffffffffffffffffff1673ffffffffffffffffffffffffffffffffffffffff168152602001908152602001600020600082015181600001908051906020019061091e929190610c3a565b50602082015181600101908051906020019061093b929190610cba565b5060408201518160020160006101000a81548160ff0219169083151502179055509050505050565b6000600260003373ffffffffffffffffffffffffffffffffffffffff1673ffffffffffffffffffffffffffffffffffffffff16815260200190815260200160002060009054906101000a900460ff16905090565b6109bf610d44565b6109c7610d58565b6109cf610d6c565b6000809054906101000a900473ffffffffffffffffffffffffffffffffffffffff1673ffffffffffffffffffffffffffffffffffffffff163373ffffffffffffffffffffffffffffffffffffffff16141515610a2a57600080fd5b600160008573ffffffffffffffffffffffffffffffffffffffff1673ffffffffffffffffffffffffffffffffffffffff16815260200190815260200160002060606040519081016040529081600082018054600181600116156101000203166002900480601f016020809104026020016040519081016040528092919081815260200182805460018160011615610100020316600290048015610b0e5780601f10610ae357610100808354040283529160200191610b0e565b820191906000526020600020905b815481529060010190602001808311610af157829003601f168201915b5050505050815260200160018201805480602002602001604051908101604052809291908181526020018280548015610b9c57602002820191906000526020600020905b8160009054906101000a900473ffffffffffffffffffffffffffffffffffffffff1673ffffffffffffffffffffffffffffffffffffffff1681526020019060010190808311610b52575b505050505081526020016002820160009054906101000a900460ff1615151515815250509050806000015181602001518191508090509250925050915091565b815481835581811511610c0957600202816002028360005260206000209182019101610c089190610d9c565b5b505050565b815481835581811511610c3557818360005260206000209182019101610c349190610dea565b5b505050565b828054600181600116156101000203166002900490600052602060002090601f016020900481019282601f10610c7b57805160ff1916838001178555610ca9565b82800160010185558215610ca9579182015b82811115610ca8578251825591602001919060010190610c8d565b5b509050610cb69190610dea565b5090565b828054828255906000526020600020908101928215610d33579160200282015b82811115610d325782518260006101000a81548173ffffffffffffffffffffffffffffffffffffffff021916908373ffffffffffffffffffffffffffffffffffffffff16021790555091602001919060010190610cda565b5b509050610d409190610e0f565b5090565b602060405190810160405280600081525090565b602060405190810160405280600081525090565b606060405190810160405280610d80610e52565b8152602001610d8d610e66565b81526020016000151581525090565b610de791905b80821115610de3576000808201600090556001820160006101000a81549073ffffffffffffffffffffffffffffffffffffffff021916905550600201610da2565b5090565b90565b610e0c91905b80821115610e08576000816000905550600101610df0565b5090565b90565b610e4f91905b80821115610e4b57600081816101000a81549073ffffffffffffffffffffffffffffffffffffffff021916905550600101610e15565b5090565b90565b602060405190810160405280600081525090565b6020604051908101604052806000815250905600a165627a7a72305820a6337d727144b31ca8203c210f51f610aa7d6b62e9b986bf7663e1f7d561a0340029",
  "source": "pragma solidity ^0.4.17;\r\n\r\nimport \"./Mortal.sol\";\r\nimport \"./Storage.sol\";\r\n\r\n\r\ncontract Creator is Owned, Mortal, Storage {\r\n\r\n    address[] private doctors;\r\n    \r\n    function createHospital(address _hospitalAddress, string _hospitalName) public onlyOwner {\r\n        hospitaltoOwner[_hospitalAddress] = Hospital(_hospitalName, doctors, true);\r\n    }\r\n    \r\n    function getHospital(address _addr) public onlyOwner view returns (string, address[]) {\r\n        Hospital memory h = hospitaltoOwner[_addr];\r\n        return (h.hospitalName, h.doctors);\r\n    }\r\n\r\n    function addDoctor(address _doctorAddress) public {\r\n        require(hospitaltoOwner[msg.sender].initialized);\r\n        hospitaltoOwner[msg.sender].doctors.push(_doctorAddress);\r\n        doctorList[_doctorAddress] = true;\r\n    }\r\n\r\n    /*Use this to identify identity as a doctor - no state change*/\r\n    function isHospital() public view returns (bool) {\r\n        return hospitaltoOwner[msg.sender].initialized;\r\n    }\r\n\r\n    function createTrialForm(bytes32 _trialFormId) public {\r\n        require(doctorList[msg.sender] == (true));\r\n        ownerToTrailFormId[msg.sender][_trialFormId] = true; \r\n        trialFormIdToOwner[_trialFormId][msg.sender] = true;\r\n    }\r\n    \r\n    function addTrialData(bytes32 trialId, bytes32 trialHash) public {\r\n        require(doctorList[msg.sender] == (true));\r\n        trialIdToData[trialId].push(TrialData(trialHash, msg.sender));\r\n    }\r\n\r\n    /*Use this method to confirm identity as doctor - no state change*/\r\n    function isDoctor() public view returns (bool) {\r\n        return doctorList[msg.sender];\r\n    }\r\n}",
  "sourcePath": "C:\\Prakktikum\\blc4pi-plc\\contracts\\Creator.sol",
  "compiler": {
    "name": "solc",
    "version": "0.4.18+commit.9cf6e910.Emscripten.clang"
  },
  "schemaVersion": "1.0.1",
  "updatedAt": "2018-04-20T17:51:58.929Z"
}