{
  "contractName": "CustomerBlocKYC",
  "abi": [
    {
      "constant": false,
      "inputs": [],
      "name": "kill",
      "outputs": [],
      "payable": false,
      "stateMutability": "nonpayable",
      "type": "function"
    },
    {
      "constant": false,
      "inputs": [
        {
          "name": "_storageContract",
          "type": "address"
        }
      ],
      "name": "setStorage",
      "outputs": [],
      "payable": false,
      "stateMutability": "nonpayable",
      "type": "function"
    },
    {
      "constant": false,
      "inputs": [
        {
          "name": "_bankAddress",
          "type": "address"
        }
      ],
      "name": "applyToBank",
      "outputs": [],
      "payable": false,
      "stateMutability": "nonpayable",
      "type": "function"
    },
    {
      "constant": false,
      "inputs": [
        {
          "name": "_name",
          "type": "bytes32"
        },
        {
          "name": "_hashOfData",
          "type": "bytes32"
        }
      ],
      "name": "createCustomer",
      "outputs": [],
      "payable": false,
      "stateMutability": "nonpayable",
      "type": "function"
    },
    {
      "constant": false,
      "inputs": [
        {
          "name": "_hashOfData",
          "type": "bytes32"
        }
      ],
      "name": "editCustomerData",
      "outputs": [],
      "payable": false,
      "stateMutability": "nonpayable",
      "type": "function"
    }
  ],
  "bytecode": "0x6060604052336000806101000a81548173ffffffffffffffffffffffffffffffffffffffff021916908373ffffffffffffffffffffffffffffffffffffffff160217905550610592806100536000396000f30060606040526004361061006d576000357c0100000000000000000000000000000000000000000000000000000000900463ffffffff16806341c0e1b5146100725780639137c1a714610087578063df4e0b27146100c0578063e90b3366146100f9578063ea525e681461012d575b600080fd5b341561007d57600080fd5b610085610154565b005b341561009257600080fd5b6100be600480803573ffffffffffffffffffffffffffffffffffffffff169060200190919050506101e9565b005b34156100cb57600080fd5b6100f7600480803573ffffffffffffffffffffffffffffffffffffffff16906020019091905050610288565b005b341561010457600080fd5b61012b6004808035600019169060200190919080356000191690602001909190505061038f565b005b341561013857600080fd5b610152600480803560001916906020019091905050610483565b005b6000809054906101000a900473ffffffffffffffffffffffffffffffffffffffff1673ffffffffffffffffffffffffffffffffffffffff163373ffffffffffffffffffffffffffffffffffffffff161415156101af57600080fd5b6000809054906101000a900473ffffffffffffffffffffffffffffffffffffffff1673ffffffffffffffffffffffffffffffffffffffff16ff5b6000809054906101000a900473ffffffffffffffffffffffffffffffffffffffff1673ffffffffffffffffffffffffffffffffffffffff163373ffffffffffffffffffffffffffffffffffffffff1614151561024457600080fd5b80600160006101000a81548173ffffffffffffffffffffffffffffffffffffffff021916908373ffffffffffffffffffffffffffffffffffffffff16021790555050565b600160009054906101000a900473ffffffffffffffffffffffffffffffffffffffff1673ffffffffffffffffffffffffffffffffffffffff16634699573533836040518363ffffffff167c0100000000000000000000000000000000000000000000000000000000028152600401808373ffffffffffffffffffffffffffffffffffffffff1673ffffffffffffffffffffffffffffffffffffffff1681526020018273ffffffffffffffffffffffffffffffffffffffff1673ffffffffffffffffffffffffffffffffffffffff16815260200192505050600060405180830381600087803b151561037857600080fd5b6102c65a03f1151561038957600080fd5b50505050565b600160009054906101000a900473ffffffffffffffffffffffffffffffffffffffff1673ffffffffffffffffffffffffffffffffffffffff1663c81052143384846040518463ffffffff167c0100000000000000000000000000000000000000000000000000000000028152600401808473ffffffffffffffffffffffffffffffffffffffff1673ffffffffffffffffffffffffffffffffffffffff168152602001836000191660001916815260200182600019166000191681526020019350505050600060405180830381600087803b151561046b57600080fd5b6102c65a03f1151561047c57600080fd5b5050505050565b600160009054906101000a900473ffffffffffffffffffffffffffffffffffffffff1673ffffffffffffffffffffffffffffffffffffffff16630bf49ea533836040518363ffffffff167c0100000000000000000000000000000000000000000000000000000000028152600401808373ffffffffffffffffffffffffffffffffffffffff1673ffffffffffffffffffffffffffffffffffffffff168152602001826000191660001916815260200192505050600060405180830381600087803b151561054f57600080fd5b6102c65a03f1151561056057600080fd5b505050505600a165627a7a72305820c93b472ccd19765b82a912f530afe52e367cd9f924b9dac314758427583312be0029",
  "source": "pragma solidity ^0.4.17;\r\n\r\nimport \"./Mortal_BlocKYC.sol\";\r\nimport \"./Storage_BlocKYC.sol\";\r\n\r\n//change contract name\r\ncontract CustomerBlocKYC is OwnedBlocKYC, MortalBlocKYC {\r\n    address private storageContractAddress;\r\n\r\n    function setStorage(address _storageContract) external onlyOwner {\r\n        storageContractAddress = _storageContract;\r\n    }\r\n    \r\n    function createCustomer(bytes32 _name, bytes32 _hashOfData) external {\r\n        StorageBlocKYC(storageContractAddress).addCustomerToCustomerData(msg.sender, _name, _hashOfData);\r\n    }\r\n\r\n    function applyToBank(address _bankAddress) external {\r\n        StorageBlocKYC(storageContractAddress).addBankToCustomer(msg.sender, _bankAddress);\r\n    }\r\n\r\n    function editCustomerData(bytes32 _hashOfData) external {\r\n        StorageBlocKYC(storageContractAddress).changeCustomerData(msg.sender, _hashOfData);\r\n    }\r\n\r\n    //Add function to get customer verification status\r\n}",
  "sourcePath": "C:\\Prakktikum\\blc4pi-plc\\contracts\\BlocKYC\\Customer_BlocKYC.sol",
  "compiler": {
    "name": "solc",
    "version": "0.4.18+commit.9cf6e910.Emscripten.clang"
  },
  "schemaVersion": "1.0.1",
  "updatedAt": "2018-04-20T18:12:06.445Z"
}