{
  "contractName": "HospitalContract",
  "abi": [
    {
      "constant": false,
      "inputs": [
        {
          "name": "_claimId",
          "type": "bytes32"
        },
        {
          "name": "_newBigchain_hash",
          "type": "bytes"
        }
      ],
      "name": "addHospitalBill",
      "outputs": [],
      "payable": false,
      "stateMutability": "nonpayable",
      "type": "function"
    }
  ],
  "bytecode": "0x6080604052732467636bea0f3c2441227eedbffac59f11d54a806000806101000a81548173ffffffffffffffffffffffffffffffffffffffff021916908373ffffffffffffffffffffffffffffffffffffffff1602179055506000600160006101000a81548173ffffffffffffffffffffffffffffffffffffffff021916908373ffffffffffffffffffffffffffffffffffffffff1602179055503480156100a657600080fd5b50610315806100b66000396000f300608060405260043610610041576000357c0100000000000000000000000000000000000000000000000000000000900463ffffffff1680634b23d04214610046575b600080fd5b34801561005257600080fd5b506100bb6004803603810190808035600019169060200190929190803590602001908201803590602001908080601f01602080910402602001604051908101604052809392919081815260200183838082843782019150505050505091929192905050506100bd565b005b33600115156000809054906101000a900473ffffffffffffffffffffffffffffffffffffffff1673ffffffffffffffffffffffffffffffffffffffff1663991e5185836040518263ffffffff167c0100000000000000000000000000000000000000000000000000000000028152600401808273ffffffffffffffffffffffffffffffffffffffff1673ffffffffffffffffffffffffffffffffffffffff168152602001915050602060405180830381600087803b15801561017e57600080fd5b505af1158015610192573d6000803e3d6000fd5b505050506040513d60208110156101a857600080fd5b810190808051906020019092919050505015151415156101c757600080fd5b6000809054906101000a900473ffffffffffffffffffffffffffffffffffffffff1673ffffffffffffffffffffffffffffffffffffffff166309c4426984846040518363ffffffff167c010000000000000000000000000000000000000000000000000000000002815260040180836000191660001916815260200180602001828103825283818151815260200191508051906020019080838360005b8381101561027f578082015181840152602081019050610264565b50505050905090810190601f1680156102ac5780820380516001836020036101000a031916815260200191505b509350505050600060405180830381600087803b1580156102cc57600080fd5b505af11580156102e0573d6000803e3d6000fd5b505050505050505600a165627a7a72305820ab9bb046d9d9e7ed9c3050d118c0f3a57bc0048d8c845ffa22674a0cffaddba50029",
  "source": "pragma solidity ^0.4.4;\r\n\r\nimport \"./ClaimStorage.sol\";\r\nimport \"./Claim.sol\";\r\n\r\n\r\n\r\n/// @title Examples of how to store and read a contract address in your dApps eternal storage for use in the hub / spoke pattern\r\n/// @author David Rugendyke\r\n\r\ncontract HospitalContract {\r\n\r\n\r\n    /*** Contracts **************/\r\n\r\n    ClaimStorage claimStorage = ClaimStorage(0x2467636bea0f3c2441227eedbffac59f11d54a80);         // The main ClaimAssist (The HUB) contract where primary persistant storage is maintained\r\n    Claim claim = Claim(0);                  // The contract that contains the claim methods in Rocket Pool\r\n\r\n    /*** Modifiers ***********/\r\n\r\n    modifier onlyRegisteredHospital(address _resgisteredHospitalAddress) {\r\n        require(claimStorage.getHospitalBool(_resgisteredHospitalAddress) == true);\r\n        _;\r\n    }\r\n\r\n    function addHospitalBill(bytes32 _claimId, bytes _newBigchain_hash ) public onlyRegisteredHospital(msg.sender){\r\n        claimStorage.setNewHash(_claimId,_newBigchain_hash);\r\n    }\r\n\r\n}\r\n",
  "sourcePath": "C:\\Users\\dheer\\Documents\\BlockchainAPC\\blockinsurance\\contracts\\claimAssist\\HospitalContract.sol",
  "compiler": {
    "name": "solc",
    "version": "0.4.23+commit.124ca40d.Emscripten.clang"
  },
  "schemaVersion": "2.0.0",
  "updatedAt": "2018-07-18T01:14:34.486Z"
}