{
  "contractName": "HospitalContract",
  "abi": [
    {
      "constant": false,
      "inputs": [
        {
          "name": "claimId",
          "type": "bytes32"
        },
        {
          "name": "_bigchainHash",
          "type": "bytes"
        },
        {
          "name": "_timeStamp",
          "type": "uint256"
        }
      ],
      "name": "addClaim",
      "outputs": [
        {
          "name": "",
          "type": "bytes32"
        }
      ],
      "payable": false,
      "stateMutability": "nonpayable",
      "type": "function"
    },
    {
      "constant": true,
      "inputs": [
        {
          "name": "",
          "type": "address"
        }
      ],
      "name": "HospitalRegistry",
      "outputs": [
        {
          "name": "",
          "type": "bool"
        }
      ],
      "payable": false,
      "stateMutability": "view",
      "type": "function"
    },
    {
      "constant": true,
      "inputs": [
        {
          "name": "_claimId",
          "type": "bytes32"
        }
      ],
      "name": "getSignatures",
      "outputs": [
        {
          "name": "",
          "type": "address[]"
        }
      ],
      "payable": false,
      "stateMutability": "view",
      "type": "function"
    },
    {
      "constant": false,
      "inputs": [
        {
          "name": "_claimId",
          "type": "bytes32"
        },
        {
          "name": "_newBigchain_hash",
          "type": "bytes"
        }
      ],
      "name": "signDocument",
      "outputs": [],
      "payable": false,
      "stateMutability": "nonpayable",
      "type": "function"
    },
    {
      "constant": true,
      "inputs": [
        {
          "name": "",
          "type": "bytes32"
        }
      ],
      "name": "claimS",
      "outputs": [
        {
          "name": "timestamp",
          "type": "uint256"
        },
        {
          "name": "bigchain_hash",
          "type": "bytes"
        }
      ],
      "payable": false,
      "stateMutability": "view",
      "type": "function"
    },
    {
      "constant": true,
      "inputs": [
        {
          "name": "_claimId",
          "type": "bytes32"
        }
      ],
      "name": "getBigchainHash",
      "outputs": [
        {
          "name": "",
          "type": "bytes"
        }
      ],
      "payable": false,
      "stateMutability": "view",
      "type": "function"
    },
    {
      "inputs": [],
      "payable": false,
      "stateMutability": "nonpayable",
      "type": "constructor"
    },
    {
      "constant": false,
      "inputs": [
        {
          "name": "_claimId",
          "type": "bytes32"
        },
        {
          "name": "_newBigchain_hash",
          "type": "bytes"
        }
      ],
      "name": "addHospitalBill",
      "outputs": [],
      "payable": false,
      "stateMutability": "nonpayable",
      "type": "function"
    },
    {
      "constant": false,
      "inputs": [
        {
          "name": "_newHospitalAddress",
          "type": "address"
        }
      ],
      "name": "addHospitalAddress",
      "outputs": [],
      "payable": false,
      "stateMutability": "nonpayable",
      "type": "function"
    }
  ],
  "bytecode": "0x608060405273ca35b7d915458ef540ade6068dfe2f44e8fa730f600260006101000a81548173ffffffffffffffffffffffffffffffffffffffff021916908373ffffffffffffffffffffffffffffffffffffffff16021790555034801561006557600080fd5b50600180600073ca35b7d915458ef540ade6068dfe2f44e8fa733d73ffffffffffffffffffffffffffffffffffffffff16815260200190815260200160002060006101000a81548160ff021916908315150217905550610c0e806100ca6000396000f30060806040526004361061008e576000357c0100000000000000000000000000000000000000000000000000000000900463ffffffff168063068d4cc81461009357806311c7fa62146101305780634b23d0421461018b5780639bc5106814610202578063a4c96e7514610288578063c32fa19a146102ff578063da2b758214610342578063f7e13da8146103f3575b600080fd5b34801561009f57600080fd5b506101126004803603810190808035600019169060200190929190803590602001908201803590602001908080601f01602080910402602001604051908101604052809392919081815260200183838082843782019150505050505091929192908035906020019092919050505061049d565b60405180826000191660001916815260200191505060405180910390f35b34801561013c57600080fd5b50610171600480360381019080803573ffffffffffffffffffffffffffffffffffffffff1690602001909291905050506105a8565b604051808215151515815260200191505060405180910390f35b34801561019757600080fd5b506102006004803603810190808035600019169060200190929190803590602001908201803590602001908080601f01602080910402602001604051908101604052809392919081815260200183838082843782019150505050505091929192905050506105c8565b005b34801561020e57600080fd5b50610231600480360381019080803560001916906020019092919050505061065d565b6040518080602001828103825283818151815260200191508051906020019060200280838360005b83811015610274578082015181840152602081019050610259565b505050509050019250505060405180910390f35b34801561029457600080fd5b506102fd6004803603810190808035600019169060200190929190803590602001908201803590602001908080601f0160208091040260200160405190810160405280939291908181526020018383808284378201915050505050509192919290505050610708565b005b34801561030b57600080fd5b50610340600480360381019080803573ffffffffffffffffffffffffffffffffffffffff1690602001909291905050506107bf565b005b34801561034e57600080fd5b506103716004803603810190808035600019169060200190929190505050610875565b6040518083815260200180602001828103825283818151815260200191508051906020019080838360005b838110156103b757808201518184015260208101905061039c565b50505050905090810190601f1680156103e45780820380516001836020036101000a031916815260200191505b50935050505060405180910390f35b3480156103ff57600080fd5b506104226004803603810190808035600019169060200190929190505050610931565b6040518080602001828103825283818151815260200191508051906020019080838360005b83811015610462578082015181840152602081019050610447565b50505050905090810190601f16801561048f5780820380516001836020036101000a031916815260200191505b509250505060405180910390f35b6000606060016040519080825280602002602001820160405280156104d15781602001602082028038833980820191505090505b509050338160008151811015156104e457fe5b9060200190602002019073ffffffffffffffffffffffffffffffffffffffff16908173ffffffffffffffffffffffffffffffffffffffff168152505060606040519081016040528084815260200185815260200182815250600080876000191660001916815260200190815260200160002060008201518160000155602082015181600101908051906020019061057c9291906109f0565b506040820151816002019080519060200190610599929190610a70565b50905050849150509392505050565b60016020528060005260406000206000915054906101000a900460ff1681565b60011515600160003373ffffffffffffffffffffffffffffffffffffffff1673ffffffffffffffffffffffffffffffffffffffff16815260200190815260200160002060009054906101000a900460ff16151514151561062757600080fd5b8060008084600019166000191681526020019081526020016000206001019080519060200190610658929190610afa565b505050565b606060008083600019166000191681526020019081526020016000206002018054806020026020016040519081016040528092919081815260200182805480156106fc57602002820191906000526020600020905b8160009054906101000a900473ffffffffffffffffffffffffffffffffffffffff1673ffffffffffffffffffffffffffffffffffffffff16815260200190600101908083116106b2575b50505050509050919050565b8060008084600019166000191681526020019081526020016000206001019080519060200190610739929190610afa565b5060008083600019166000191681526020019081526020016000206002013390806001815401808255809150509060018203906000526020600020016000909192909190916101000a81548173ffffffffffffffffffffffffffffffffffffffff021916908373ffffffffffffffffffffffffffffffffffffffff160217905550505050565b600260009054906101000a900473ffffffffffffffffffffffffffffffffffffffff1673ffffffffffffffffffffffffffffffffffffffff163373ffffffffffffffffffffffffffffffffffffffff1614151561081b57600080fd5b60018060008373ffffffffffffffffffffffffffffffffffffffff1673ffffffffffffffffffffffffffffffffffffffff16815260200190815260200160002060006101000a81548160ff02191690831515021790555050565b6000602052806000526040600020600091509050806000015490806001018054600181600116156101000203166002900480601f0160208091040260200160405190810160405280929190818152602001828054600181600116156101000203166002900480156109275780601f106108fc57610100808354040283529160200191610927565b820191906000526020600020905b81548152906001019060200180831161090a57829003601f168201915b5050505050905082565b606060008083600019166000191681526020019081526020016000206001018054600181600116156101000203166002900480601f0160208091040260200160405190810160405280929190818152602001828054600181600116156101000203166002900480156109e45780601f106109b9576101008083540402835291602001916109e4565b820191906000526020600020905b8154815290600101906020018083116109c757829003601f168201915b50505050509050919050565b828054600181600116156101000203166002900490600052602060002090601f016020900481019282601f10610a3157805160ff1916838001178555610a5f565b82800160010185558215610a5f579182015b82811115610a5e578251825591602001919060010190610a43565b5b509050610a6c9190610b7a565b5090565b828054828255906000526020600020908101928215610ae9579160200282015b82811115610ae85782518260006101000a81548173ffffffffffffffffffffffffffffffffffffffff021916908373ffffffffffffffffffffffffffffffffffffffff16021790555091602001919060010190610a90565b5b509050610af69190610b9f565b5090565b828054600181600116156101000203166002900490600052602060002090601f016020900481019282601f10610b3b57805160ff1916838001178555610b69565b82800160010185558215610b69579182015b82811115610b68578251825591602001919060010190610b4d565b5b509050610b769190610b7a565b5090565b610b9c91905b80821115610b98576000816000905550600101610b80565b5090565b90565b610bdf91905b80821115610bdb57600081816101000a81549073ffffffffffffffffffffffffffffffffffffffff021916905550600101610ba5565b5090565b905600a165627a7a72305820448f39fc5d80fede6b80879117f45ca92f33008ad036b0fbf1db95bb0f672b360029",
  "source": "pragma solidity ^0.4.4;\r\n\r\nimport \"./AgreementContract.sol\";\r\n\r\ncontract HospitalContract is AgreementContract{\r\n\r\n    mapping (address => bool) public HospitalRegistry;\r\n    address hospitalAdmin = 0xca35b7d915458ef540ade6068dfe2f44e8fa730f;\r\n\r\n    constructor() public{\r\n           HospitalRegistry[0xca35b7d915458ef540ade6068dfe2f44e8fa733d] = true;\r\n     }\r\n\r\n    function addHospitalBill(bytes32 _claimId, bytes _newBigchain_hash ) public {\r\n       // accidentParties[msg.sender].push(agreementId);\r\n        require(HospitalRegistry[msg.sender] == true);\r\n        //require(claimS[_claimId].currentStage == \"initial\");\r\n        claimS[_claimId].bigchain_hash = _newBigchain_hash;\r\n    }\r\n\r\n    function addHospitalAddress(address _newHospitalAddress) public{\r\n        require(msg.sender == hospitalAdmin);\r\n        HospitalRegistry[_newHospitalAddress] = true;\r\n    }\r\n}\r\n",
  "sourcePath": "C:\\Users\\jeshw\\blockinsurance\\contracts\\blockinsurance\\HospitalContract.sol",
  "compiler": {
    "name": "solc",
    "version": "0.4.23+commit.124ca40d.Emscripten.clang"
  },
  "schemaVersion": "2.0.0",
  "updatedAt": "2018-07-10T18:04:32.815Z"
}