{
  "contractName": "ICSContract",
  "abi": [
    {
      "constant": false,
      "inputs": [
        {
          "name": "claimId",
          "type": "bytes32"
        },
        {
          "name": "_bigchainHash",
          "type": "bytes"
        },
        {
          "name": "_timeStamp",
          "type": "uint256"
        }
      ],
      "name": "addClaim",
      "outputs": [
        {
          "name": "",
          "type": "bytes32"
        }
      ],
      "payable": false,
      "stateMutability": "nonpayable",
      "type": "function"
    },
    {
      "constant": true,
      "inputs": [
        {
          "name": "",
          "type": "address"
        }
      ],
      "name": "HospitalRegistry",
      "outputs": [
        {
          "name": "",
          "type": "bool"
        }
      ],
      "payable": false,
      "stateMutability": "view",
      "type": "function"
    },
    {
      "constant": true,
      "inputs": [
        {
          "name": "",
          "type": "address"
        }
      ],
      "name": "policeRegistry",
      "outputs": [
        {
          "name": "",
          "type": "bool"
        }
      ],
      "payable": false,
      "stateMutability": "view",
      "type": "function"
    },
    {
      "constant": false,
      "inputs": [
        {
          "name": "_claimId",
          "type": "bytes32"
        },
        {
          "name": "_newBigchain_hash",
          "type": "bytes"
        },
        {
          "name": "_HospitalAddress",
          "type": "address"
        }
      ],
      "name": "addHospitalBill",
      "outputs": [],
      "payable": false,
      "stateMutability": "nonpayable",
      "type": "function"
    },
    {
      "constant": true,
      "inputs": [
        {
          "name": "_claimId",
          "type": "bytes32"
        }
      ],
      "name": "getSignatures",
      "outputs": [
        {
          "name": "",
          "type": "address[]"
        }
      ],
      "payable": false,
      "stateMutability": "view",
      "type": "function"
    },
    {
      "constant": false,
      "inputs": [
        {
          "name": "_claimId",
          "type": "bytes32"
        },
        {
          "name": "_newBigchain_hash",
          "type": "bytes"
        }
      ],
      "name": "signDocument",
      "outputs": [],
      "payable": false,
      "stateMutability": "nonpayable",
      "type": "function"
    },
    {
      "constant": false,
      "inputs": [
        {
          "name": "_newPoliceAddress",
          "type": "address"
        }
      ],
      "name": "addPoliceAddress",
      "outputs": [],
      "payable": false,
      "stateMutability": "nonpayable",
      "type": "function"
    },
    {
      "constant": false,
      "inputs": [
        {
          "name": "_claimId",
          "type": "bytes32"
        },
        {
          "name": "_newBigchain_hash",
          "type": "bytes"
        },
        {
          "name": "_policeAddress",
          "type": "address"
        }
      ],
      "name": "addPoliceReport",
      "outputs": [],
      "payable": false,
      "stateMutability": "nonpayable",
      "type": "function"
    },
    {
      "constant": false,
      "inputs": [
        {
          "name": "_newHospitalAddress",
          "type": "address"
        }
      ],
      "name": "addHospitalAddress",
      "outputs": [],
      "payable": false,
      "stateMutability": "nonpayable",
      "type": "function"
    },
    {
      "constant": true,
      "inputs": [
        {
          "name": "",
          "type": "bytes32"
        }
      ],
      "name": "claimS",
      "outputs": [
        {
          "name": "timestamp",
          "type": "uint256"
        },
        {
          "name": "bigchain_hash",
          "type": "bytes"
        }
      ],
      "payable": false,
      "stateMutability": "view",
      "type": "function"
    },
    {
      "constant": true,
      "inputs": [
        {
          "name": "_claimId",
          "type": "bytes32"
        }
      ],
      "name": "getBigchainHash",
      "outputs": [
        {
          "name": "",
          "type": "bytes"
        }
      ],
      "payable": false,
      "stateMutability": "view",
      "type": "function"
    }
  ],
  "bytecode": "0x608060405273ca35b7d915458ef540ade6068dfe2f44e8fa730e600260006101000a81548173ffffffffffffffffffffffffffffffffffffffff021916908373ffffffffffffffffffffffffffffffffffffffff16021790555073ca35b7d915458ef540ade6068dfe2f44e8fa730f600460006101000a81548173ffffffffffffffffffffffffffffffffffffffff021916908373ffffffffffffffffffffffffffffffffffffffff160217905550600180600073ca35b7d915458ef540ade6068dfe2f44e8fa733b73ffffffffffffffffffffffffffffffffffffffff16815260200190815260200160002060006101000a81548160ff02191690831515021790555060016003600073ca35b7d915458ef540ade6068dfe2f44e8fa733d73ffffffffffffffffffffffffffffffffffffffff16815260200190815260200160002060006101000a81548160ff021916908315150217905550610ef2806101686000396000f3006080604052600436106100af576000357c0100000000000000000000000000000000000000000000000000000000900463ffffffff168063068d4cc8146100b457806311c7fa62146101515780632c10e912146101ac5780637d51647f146102075780639bc510681461029e578063a4c96e7514610324578063b52c6dd11461039b578063bdbf963f146103de578063c32fa19a14610475578063da2b7582146104b8578063f7e13da814610569575b600080fd5b3480156100c057600080fd5b506101336004803603810190808035600019169060200190929190803590602001908201803590602001908080601f016020809104026020016040519081016040528093929190818152602001838380828437820191505050505050919291929080359060200190929190505050610613565b60405180826000191660001916815260200191505060405180910390f35b34801561015d57600080fd5b50610192600480360381019080803573ffffffffffffffffffffffffffffffffffffffff16906020019092919050505061071e565b604051808215151515815260200191505060405180910390f35b3480156101b857600080fd5b506101ed600480360381019080803573ffffffffffffffffffffffffffffffffffffffff16906020019092919050505061073e565b604051808215151515815260200191505060405180910390f35b34801561021357600080fd5b5061029c6004803603810190808035600019169060200190929190803590602001908201803590602001908080601f0160208091040260200160405190810160405280939291908181526020018383808284378201915050505050509192919290803573ffffffffffffffffffffffffffffffffffffffff16906020019092919050505061075e565b005b3480156102aa57600080fd5b506102cd60048036038101908080356000191690602001909291905050506107f4565b6040518080602001828103825283818151815260200191508051906020019060200280838360005b838110156103105780820151818401526020810190506102f5565b505050509050019250505060405180910390f35b34801561033057600080fd5b506103996004803603810190808035600019169060200190929190803590602001908201803590602001908080601f016020809104026020016040519081016040528093929190818152602001838380828437820191505050505050919291929050505061089f565b005b3480156103a757600080fd5b506103dc600480360381019080803573ffffffffffffffffffffffffffffffffffffffff169060200190929190505050610956565b005b3480156103ea57600080fd5b506104736004803603810190808035600019169060200190929190803590602001908201803590602001908080601f0160208091040260200160405190810160405280939291908181526020018383808284378201915050505050509192919290803573ffffffffffffffffffffffffffffffffffffffff169060200190929190505050610a0c565b005b34801561048157600080fd5b506104b6600480360381019080803573ffffffffffffffffffffffffffffffffffffffff169060200190929190505050610aa2565b005b3480156104c457600080fd5b506104e76004803603810190808035600019169060200190929190505050610b59565b6040518083815260200180602001828103825283818151815260200191508051906020019080838360005b8381101561052d578082015181840152602081019050610512565b50505050905090810190601f16801561055a5780820380516001836020036101000a031916815260200191505b50935050505060405180910390f35b34801561057557600080fd5b506105986004803603810190808035600019169060200190929190505050610c15565b6040518080602001828103825283818151815260200191508051906020019080838360005b838110156105d85780820151818401526020810190506105bd565b50505050905090810190601f1680156106055780820380516001836020036101000a031916815260200191505b509250505060405180910390f35b6000606060016040519080825280602002602001820160405280156106475781602001602082028038833980820191505090505b5090503381600081518110151561065a57fe5b9060200190602002019073ffffffffffffffffffffffffffffffffffffffff16908173ffffffffffffffffffffffffffffffffffffffff16815250506060604051908101604052808481526020018581526020018281525060008087600019166000191681526020019081526020016000206000820151816000015560208201518160010190805190602001906106f2929190610cd4565b50604082015181600201908051906020019061070f929190610d54565b50905050849150509392505050565b60036020528060005260406000206000915054906101000a900460ff1681565b60016020528060005260406000206000915054906101000a900460ff1681565b60011515600360008373ffffffffffffffffffffffffffffffffffffffff1673ffffffffffffffffffffffffffffffffffffffff16815260200190815260200160002060009054906101000a900460ff1615151415156107bd57600080fd5b81600080856000191660001916815260200190815260200160002060010190805190602001906107ee929190610dde565b50505050565b6060600080836000191660001916815260200190815260200160002060020180548060200260200160405190810160405280929190818152602001828054801561089357602002820191906000526020600020905b8160009054906101000a900473ffffffffffffffffffffffffffffffffffffffff1673ffffffffffffffffffffffffffffffffffffffff1681526020019060010190808311610849575b50505050509050919050565b80600080846000191660001916815260200190815260200160002060010190805190602001906108d0929190610dde565b5060008083600019166000191681526020019081526020016000206002013390806001815401808255809150509060018203906000526020600020016000909192909190916101000a81548173ffffffffffffffffffffffffffffffffffffffff021916908373ffffffffffffffffffffffffffffffffffffffff160217905550505050565b600260009054906101000a900473ffffffffffffffffffffffffffffffffffffffff1673ffffffffffffffffffffffffffffffffffffffff163373ffffffffffffffffffffffffffffffffffffffff161415156109b257600080fd5b60018060008373ffffffffffffffffffffffffffffffffffffffff1673ffffffffffffffffffffffffffffffffffffffff16815260200190815260200160002060006101000a81548160ff02191690831515021790555050565b60011515600160008373ffffffffffffffffffffffffffffffffffffffff1673ffffffffffffffffffffffffffffffffffffffff16815260200190815260200160002060009054906101000a900460ff161515141515610a6b57600080fd5b8160008085600019166000191681526020019081526020016000206001019080519060200190610a9c929190610dde565b50505050565b600460009054906101000a900473ffffffffffffffffffffffffffffffffffffffff1673ffffffffffffffffffffffffffffffffffffffff163373ffffffffffffffffffffffffffffffffffffffff16141515610afe57600080fd5b6001600360008373ffffffffffffffffffffffffffffffffffffffff1673ffffffffffffffffffffffffffffffffffffffff16815260200190815260200160002060006101000a81548160ff02191690831515021790555050565b6000602052806000526040600020600091509050806000015490806001018054600181600116156101000203166002900480601f016020809104026020016040519081016040528092919081815260200182805460018160011615610100020316600290048015610c0b5780601f10610be057610100808354040283529160200191610c0b565b820191906000526020600020905b815481529060010190602001808311610bee57829003601f168201915b5050505050905082565b606060008083600019166000191681526020019081526020016000206001018054600181600116156101000203166002900480601f016020809104026020016040519081016040528092919081815260200182805460018160011615610100020316600290048015610cc85780601f10610c9d57610100808354040283529160200191610cc8565b820191906000526020600020905b815481529060010190602001808311610cab57829003601f168201915b50505050509050919050565b828054600181600116156101000203166002900490600052602060002090601f016020900481019282601f10610d1557805160ff1916838001178555610d43565b82800160010185558215610d43579182015b82811115610d42578251825591602001919060010190610d27565b5b509050610d509190610e5e565b5090565b828054828255906000526020600020908101928215610dcd579160200282015b82811115610dcc5782518260006101000a81548173ffffffffffffffffffffffffffffffffffffffff021916908373ffffffffffffffffffffffffffffffffffffffff16021790555091602001919060010190610d74565b5b509050610dda9190610e83565b5090565b828054600181600116156101000203166002900490600052602060002090601f016020900481019282601f10610e1f57805160ff1916838001178555610e4d565b82800160010185558215610e4d579182015b82811115610e4c578251825591602001919060010190610e31565b5b509050610e5a9190610e5e565b5090565b610e8091905b80821115610e7c576000816000905550600101610e64565b5090565b90565b610ec391905b80821115610ebf57600081816101000a81549073ffffffffffffffffffffffffffffffffffffffff021916905550600101610e89565b5090565b905600a165627a7a723058207c28e2a3cf9be5ab6b411e7efb7d6ee75d59317a8f53b4e5fe3a6f804e9a8b4d0029",
  "source": "pragma solidity ^0.4.4;\r\n\r\nimport \"./PoliceContract.sol\";\r\nimport \"./HospitalContract.sol\";\r\n\r\ncontract ICSContract is PoliceContract, HospitalContract{\r\n\r\n\r\n}\r\n",
  "sourcePath": "C:\\Users\\jeshw\\blockinsurance\\contracts\\blockinsurance\\ICSContract.sol",
  "compiler": {
    "name": "solc",
    "version": "0.4.23+commit.124ca40d.Emscripten.clang"
  },
  "schemaVersion": "2.0.0",
  "updatedAt": "2018-07-08T15:46:16.887Z"
}