{
  "contractName": "ICSContract",
  "abi": [
    {
      "constant": false,
      "inputs": [
        {
          "name": "claimId",
          "type": "bytes32"
        },
        {
          "name": "_bigchainHash",
          "type": "bytes"
        },
        {
          "name": "_timeStamp",
          "type": "uint256"
        }
      ],
      "name": "addClaim",
      "outputs": [
        {
          "name": "",
          "type": "bytes32"
        }
      ],
      "payable": false,
      "stateMutability": "nonpayable",
      "type": "function"
    },
    {
      "constant": true,
      "inputs": [
        {
          "name": "",
          "type": "address"
        }
      ],
      "name": "HospitalRegistry",
      "outputs": [
        {
          "name": "",
          "type": "bool"
        }
      ],
      "payable": false,
      "stateMutability": "view",
      "type": "function"
    },
    {
      "constant": true,
      "inputs": [
        {
          "name": "",
          "type": "address"
        }
      ],
      "name": "policeRegistry",
      "outputs": [
        {
          "name": "",
          "type": "bool"
        }
      ],
      "payable": false,
      "stateMutability": "view",
      "type": "function"
    },
    {
      "constant": false,
      "inputs": [
        {
          "name": "_claimId",
          "type": "bytes32"
        },
        {
          "name": "_newBigchain_hash",
          "type": "bytes"
        }
      ],
      "name": "addHospitalBill",
      "outputs": [],
      "payable": false,
      "stateMutability": "nonpayable",
      "type": "function"
    },
    {
      "constant": false,
      "inputs": [
        {
          "name": "_claimId",
          "type": "bytes32"
        },
        {
          "name": "_newBigchain_hash",
          "type": "bytes"
        }
      ],
      "name": "addPoliceReport",
      "outputs": [],
      "payable": false,
      "stateMutability": "nonpayable",
      "type": "function"
    },
    {
      "constant": true,
      "inputs": [
        {
          "name": "_claimId",
          "type": "bytes32"
        }
      ],
      "name": "getSignatures",
      "outputs": [
        {
          "name": "",
          "type": "address[]"
        }
      ],
      "payable": false,
      "stateMutability": "view",
      "type": "function"
    },
    {
      "constant": false,
      "inputs": [
        {
          "name": "_claimId",
          "type": "bytes32"
        },
        {
          "name": "_newBigchain_hash",
          "type": "bytes"
        }
      ],
      "name": "signDocument",
      "outputs": [],
      "payable": false,
      "stateMutability": "nonpayable",
      "type": "function"
    },
    {
      "constant": false,
      "inputs": [
        {
          "name": "_newPoliceAddress",
          "type": "address"
        }
      ],
      "name": "addPoliceAddress",
      "outputs": [],
      "payable": false,
      "stateMutability": "nonpayable",
      "type": "function"
    },
    {
      "constant": false,
      "inputs": [
        {
          "name": "_newHospitalAddress",
          "type": "address"
        }
      ],
      "name": "addHospitalAddress",
      "outputs": [],
      "payable": false,
      "stateMutability": "nonpayable",
      "type": "function"
    },
    {
      "constant": true,
      "inputs": [
        {
          "name": "",
          "type": "bytes32"
        }
      ],
      "name": "claimS",
      "outputs": [
        {
          "name": "timestamp",
          "type": "uint256"
        },
        {
          "name": "bigchain_hash",
          "type": "bytes"
        }
      ],
      "payable": false,
      "stateMutability": "view",
      "type": "function"
    },
    {
      "constant": true,
      "inputs": [
        {
          "name": "_claimId",
          "type": "bytes32"
        }
      ],
      "name": "getBigchainHash",
      "outputs": [
        {
          "name": "",
          "type": "bytes"
        }
      ],
      "payable": false,
      "stateMutability": "view",
      "type": "function"
    }
  ],
  "bytecode": "0x608060405273ca35b7d915458ef540ade6068dfe2f44e8fa730e600260006101000a81548173ffffffffffffffffffffffffffffffffffffffff021916908373ffffffffffffffffffffffffffffffffffffffff16021790555073ca35b7d915458ef540ade6068dfe2f44e8fa730f600460006101000a81548173ffffffffffffffffffffffffffffffffffffffff021916908373ffffffffffffffffffffffffffffffffffffffff160217905550600180600073ca35b7d915458ef540ade6068dfe2f44e8fa733b73ffffffffffffffffffffffffffffffffffffffff16815260200190815260200160002060006101000a81548160ff02191690831515021790555060016003600073ca35b7d915458ef540ade6068dfe2f44e8fa733d73ffffffffffffffffffffffffffffffffffffffff16815260200190815260200160002060006101000a81548160ff021916908315150217905550610eb0806101686000396000f3006080604052600436106100af576000357c0100000000000000000000000000000000000000000000000000000000900463ffffffff168063068d4cc8146100b457806311c7fa62146101515780632c10e912146101ac5780634b23d04214610207578063605a4dd21461027e5780639bc51068146102f5578063a4c96e751461037b578063b52c6dd1146103f2578063c32fa19a14610435578063da2b758214610478578063f7e13da814610529575b600080fd5b3480156100c057600080fd5b506101336004803603810190808035600019169060200190929190803590602001908201803590602001908080601f0160208091040260200160405190810160405280939291908181526020018383808284378201915050505050509192919290803590602001909291905050506105d3565b60405180826000191660001916815260200191505060405180910390f35b34801561015d57600080fd5b50610192600480360381019080803573ffffffffffffffffffffffffffffffffffffffff1690602001909291905050506106de565b604051808215151515815260200191505060405180910390f35b3480156101b857600080fd5b506101ed600480360381019080803573ffffffffffffffffffffffffffffffffffffffff1690602001909291905050506106fe565b604051808215151515815260200191505060405180910390f35b34801561021357600080fd5b5061027c6004803603810190808035600019169060200190929190803590602001908201803590602001908080601f016020809104026020016040519081016040528093929190818152602001838380828437820191505050505050919291929050505061071e565b005b34801561028a57600080fd5b506102f36004803603810190808035600019169060200190929190803590602001908201803590602001908080601f01602080910402602001604051908101604052809392919081815260200183838082843782019150505050505091929192905050506107b3565b005b34801561030157600080fd5b506103246004803603810190808035600019169060200190929190505050610848565b6040518080602001828103825283818151815260200191508051906020019060200280838360005b8381101561036757808201518184015260208101905061034c565b505050509050019250505060405180910390f35b34801561038757600080fd5b506103f06004803603810190808035600019169060200190929190803590602001908201803590602001908080601f01602080910402602001604051908101604052809392919081815260200183838082843782019150505050505091929192905050506108f3565b005b3480156103fe57600080fd5b50610433600480360381019080803573ffffffffffffffffffffffffffffffffffffffff1690602001909291905050506109aa565b005b34801561044157600080fd5b50610476600480360381019080803573ffffffffffffffffffffffffffffffffffffffff169060200190929190505050610a60565b005b34801561048457600080fd5b506104a76004803603810190808035600019169060200190929190505050610b17565b6040518083815260200180602001828103825283818151815260200191508051906020019080838360005b838110156104ed5780820151818401526020810190506104d2565b50505050905090810190601f16801561051a5780820380516001836020036101000a031916815260200191505b50935050505060405180910390f35b34801561053557600080fd5b506105586004803603810190808035600019169060200190929190505050610bd3565b6040518080602001828103825283818151815260200191508051906020019080838360005b8381101561059857808201518184015260208101905061057d565b50505050905090810190601f1680156105c55780820380516001836020036101000a031916815260200191505b509250505060405180910390f35b6000606060016040519080825280602002602001820160405280156106075781602001602082028038833980820191505090505b5090503381600081518110151561061a57fe5b9060200190602002019073ffffffffffffffffffffffffffffffffffffffff16908173ffffffffffffffffffffffffffffffffffffffff16815250506060604051908101604052808481526020018581526020018281525060008087600019166000191681526020019081526020016000206000820151816000015560208201518160010190805190602001906106b2929190610c92565b5060408201518160020190805190602001906106cf929190610d12565b50905050849150509392505050565b60036020528060005260406000206000915054906101000a900460ff1681565b60016020528060005260406000206000915054906101000a900460ff1681565b60011515600360003373ffffffffffffffffffffffffffffffffffffffff1673ffffffffffffffffffffffffffffffffffffffff16815260200190815260200160002060009054906101000a900460ff16151514151561077d57600080fd5b80600080846000191660001916815260200190815260200160002060010190805190602001906107ae929190610d9c565b505050565b60011515600160003373ffffffffffffffffffffffffffffffffffffffff1673ffffffffffffffffffffffffffffffffffffffff16815260200190815260200160002060009054906101000a900460ff16151514151561081257600080fd5b8060008084600019166000191681526020019081526020016000206001019080519060200190610843929190610d9c565b505050565b606060008083600019166000191681526020019081526020016000206002018054806020026020016040519081016040528092919081815260200182805480156108e757602002820191906000526020600020905b8160009054906101000a900473ffffffffffffffffffffffffffffffffffffffff1673ffffffffffffffffffffffffffffffffffffffff168152602001906001019080831161089d575b50505050509050919050565b8060008084600019166000191681526020019081526020016000206001019080519060200190610924929190610d9c565b5060008083600019166000191681526020019081526020016000206002013390806001815401808255809150509060018203906000526020600020016000909192909190916101000a81548173ffffffffffffffffffffffffffffffffffffffff021916908373ffffffffffffffffffffffffffffffffffffffff160217905550505050565b600260009054906101000a900473ffffffffffffffffffffffffffffffffffffffff1673ffffffffffffffffffffffffffffffffffffffff163373ffffffffffffffffffffffffffffffffffffffff16141515610a0657600080fd5b60018060008373ffffffffffffffffffffffffffffffffffffffff1673ffffffffffffffffffffffffffffffffffffffff16815260200190815260200160002060006101000a81548160ff02191690831515021790555050565b600460009054906101000a900473ffffffffffffffffffffffffffffffffffffffff1673ffffffffffffffffffffffffffffffffffffffff163373ffffffffffffffffffffffffffffffffffffffff16141515610abc57600080fd5b6001600360008373ffffffffffffffffffffffffffffffffffffffff1673ffffffffffffffffffffffffffffffffffffffff16815260200190815260200160002060006101000a81548160ff02191690831515021790555050565b6000602052806000526040600020600091509050806000015490806001018054600181600116156101000203166002900480601f016020809104026020016040519081016040528092919081815260200182805460018160011615610100020316600290048015610bc95780601f10610b9e57610100808354040283529160200191610bc9565b820191906000526020600020905b815481529060010190602001808311610bac57829003601f168201915b5050505050905082565b606060008083600019166000191681526020019081526020016000206001018054600181600116156101000203166002900480601f016020809104026020016040519081016040528092919081815260200182805460018160011615610100020316600290048015610c865780601f10610c5b57610100808354040283529160200191610c86565b820191906000526020600020905b815481529060010190602001808311610c6957829003601f168201915b50505050509050919050565b828054600181600116156101000203166002900490600052602060002090601f016020900481019282601f10610cd357805160ff1916838001178555610d01565b82800160010185558215610d01579182015b82811115610d00578251825591602001919060010190610ce5565b5b509050610d0e9190610e1c565b5090565b828054828255906000526020600020908101928215610d8b579160200282015b82811115610d8a5782518260006101000a81548173ffffffffffffffffffffffffffffffffffffffff021916908373ffffffffffffffffffffffffffffffffffffffff16021790555091602001919060010190610d32565b5b509050610d989190610e41565b5090565b828054600181600116156101000203166002900490600052602060002090601f016020900481019282601f10610ddd57805160ff1916838001178555610e0b565b82800160010185558215610e0b579182015b82811115610e0a578251825591602001919060010190610def565b5b509050610e189190610e1c565b5090565b610e3e91905b80821115610e3a576000816000905550600101610e22565b5090565b90565b610e8191905b80821115610e7d57600081816101000a81549073ffffffffffffffffffffffffffffffffffffffff021916905550600101610e47565b5090565b905600a165627a7a7230582054031b872993d36d04b6c2671a1f10f8f922d3047bd8c2b2059d78bc4da843290029",
  "source": "pragma solidity ^0.4.4;\r\n\r\nimport \"./PoliceContract.sol\";\r\nimport \"./HospitalContract.sol\";\r\n\r\ncontract ICSContract is PoliceContract, HospitalContract{\r\n\r\n\r\n}\r\n",
  "sourcePath": "C:\\Users\\jeshw\\blockinsurance\\contracts\\blockinsurance\\ICSContract.sol",
  "compiler": {
    "name": "solc",
    "version": "0.4.23+commit.124ca40d.Emscripten.clang"
  },
  "schemaVersion": "2.0.0",
  "updatedAt": "2018-07-10T18:04:32.808Z"
}