{
  "contractName": "MortalBlocKYC",
  "abi": [
    {
      "constant": false,
      "inputs": [],
      "name": "kill",
      "outputs": [],
      "payable": false,
      "stateMutability": "nonpayable",
      "type": "function"
    }
  ],
  "bytecode": "0x6060604052336000806101000a81548173ffffffffffffffffffffffffffffffffffffffff021916908373ffffffffffffffffffffffffffffffffffffffff160217905550610116806100536000396000f300606060405260043610603f576000357c0100000000000000000000000000000000000000000000000000000000900463ffffffff16806341c0e1b5146044575b600080fd5b3415604e57600080fd5b60546056565b005b6000809054906101000a900473ffffffffffffffffffffffffffffffffffffffff1673ffffffffffffffffffffffffffffffffffffffff163373ffffffffffffffffffffffffffffffffffffffff1614151560b057600080fd5b6000809054906101000a900473ffffffffffffffffffffffffffffffffffffffff1673ffffffffffffffffffffffffffffffffffffffff16ff00a165627a7a72305820e7631b0f142dc05719497d2e65d3144bd8f4e51e9092c8e3c5f238d4873023e00029",
  "source": "pragma solidity ^0.4.17;\r\n\r\ncontract OwnedBlocKYC {\r\n\r\n    address owner;\r\n\r\n    /*this function is executed at initialization and sets the owner of the contract */\r\n    function OwnedBlocKYC() public { owner = msg.sender; }\r\n\r\n    modifier onlyOwner() {\r\n        require(msg.sender == owner);\r\n        _;\r\n    }\r\n}\r\n\r\n\r\ncontract MortalBlocKYC is OwnedBlocKYC {\r\n\r\n    /* Function to recover the funds on the contract */\r\n    function kill() public onlyOwner() {\r\n        selfdestruct(owner);\r\n    }\r\n\r\n}",
  "sourcePath": "C:\\Prakktikum\\blc4pi-plc\\contracts\\BlocKYC\\Mortal_BlocKYC.sol",
  "compiler": {
    "name": "solc",
    "version": "0.4.18+commit.9cf6e910.Emscripten.clang"
  },
  "schemaVersion": "1.0.1",
  "updatedAt": "2018-04-20T18:12:06.449Z"
}