{
  "contractName": "PoliceContract",
  "abi": [
    {
      "constant": false,
      "inputs": [
        {
          "name": "claimId",
          "type": "bytes32"
        },
        {
          "name": "_bigchainHash",
          "type": "bytes"
        },
        {
          "name": "_timeStamp",
          "type": "uint256"
        }
      ],
      "name": "addClaim",
      "outputs": [
        {
          "name": "",
          "type": "bytes32"
        }
      ],
      "payable": false,
      "stateMutability": "nonpayable",
      "type": "function"
    },
    {
      "constant": true,
      "inputs": [
        {
          "name": "",
          "type": "address"
        }
      ],
      "name": "policeRegistry",
      "outputs": [
        {
          "name": "",
          "type": "bool"
        }
      ],
      "payable": false,
      "stateMutability": "view",
      "type": "function"
    },
    {
      "constant": true,
      "inputs": [
        {
          "name": "_claimId",
          "type": "bytes32"
        }
      ],
      "name": "getSignatures",
      "outputs": [
        {
          "name": "",
          "type": "address[]"
        }
      ],
      "payable": false,
      "stateMutability": "view",
      "type": "function"
    },
    {
      "constant": false,
      "inputs": [
        {
          "name": "_claimId",
          "type": "bytes32"
        },
        {
          "name": "_newBigchain_hash",
          "type": "bytes"
        }
      ],
      "name": "signDocument",
      "outputs": [],
      "payable": false,
      "stateMutability": "nonpayable",
      "type": "function"
    },
    {
      "constant": true,
      "inputs": [
        {
          "name": "",
          "type": "bytes32"
        }
      ],
      "name": "claimS",
      "outputs": [
        {
          "name": "timestamp",
          "type": "uint256"
        },
        {
          "name": "bigchain_hash",
          "type": "bytes"
        }
      ],
      "payable": false,
      "stateMutability": "view",
      "type": "function"
    },
    {
      "constant": true,
      "inputs": [
        {
          "name": "_claimId",
          "type": "bytes32"
        }
      ],
      "name": "getBigchainHash",
      "outputs": [
        {
          "name": "",
          "type": "bytes"
        }
      ],
      "payable": false,
      "stateMutability": "view",
      "type": "function"
    },
    {
      "inputs": [],
      "payable": false,
      "stateMutability": "nonpayable",
      "type": "constructor"
    },
    {
      "constant": false,
      "inputs": [
        {
          "name": "_claimId",
          "type": "bytes32"
        },
        {
          "name": "_newBigchain_hash",
          "type": "bytes"
        },
        {
          "name": "_policeAddress",
          "type": "address"
        }
      ],
      "name": "addPoliceReport",
      "outputs": [],
      "payable": false,
      "stateMutability": "nonpayable",
      "type": "function"
    },
    {
      "constant": false,
      "inputs": [
        {
          "name": "_newPoliceAddress",
          "type": "address"
        }
      ],
      "name": "addPoliceAddress",
      "outputs": [],
      "payable": false,
      "stateMutability": "nonpayable",
      "type": "function"
    }
  ],
  "bytecode": "0x608060405273ca35b7d915458ef540ade6068dfe2f44e8fa730e600260006101000a81548173ffffffffffffffffffffffffffffffffffffffff021916908373ffffffffffffffffffffffffffffffffffffffff16021790555034801561006557600080fd5b50600180600073ca35b7d915458ef540ade6068dfe2f44e8fa733b73ffffffffffffffffffffffffffffffffffffffff16815260200190815260200160002060006101000a81548160ff021916908315150217905550610c2f806100ca6000396000f30060806040526004361061008e576000357c0100000000000000000000000000000000000000000000000000000000900463ffffffff168063068d4cc8146100935780632c10e912146101305780639bc510681461018b578063a4c96e7514610211578063b52c6dd114610288578063bdbf963f146102cb578063da2b758214610362578063f7e13da814610413575b600080fd5b34801561009f57600080fd5b506101126004803603810190808035600019169060200190929190803590602001908201803590602001908080601f0160208091040260200160405190810160405280939291908181526020018383808284378201915050505050509192919290803590602001909291905050506104bd565b60405180826000191660001916815260200191505060405180910390f35b34801561013c57600080fd5b50610171600480360381019080803573ffffffffffffffffffffffffffffffffffffffff1690602001909291905050506105c8565b604051808215151515815260200191505060405180910390f35b34801561019757600080fd5b506101ba60048036038101908080356000191690602001909291905050506105e8565b6040518080602001828103825283818151815260200191508051906020019060200280838360005b838110156101fd5780820151818401526020810190506101e2565b505050509050019250505060405180910390f35b34801561021d57600080fd5b506102866004803603810190808035600019169060200190929190803590602001908201803590602001908080601f0160208091040260200160405190810160405280939291908181526020018383808284378201915050505050509192919290505050610693565b005b34801561029457600080fd5b506102c9600480360381019080803573ffffffffffffffffffffffffffffffffffffffff16906020019092919050505061074a565b005b3480156102d757600080fd5b506103606004803603810190808035600019169060200190929190803590602001908201803590602001908080601f0160208091040260200160405190810160405280939291908181526020018383808284378201915050505050509192919290803573ffffffffffffffffffffffffffffffffffffffff169060200190929190505050610800565b005b34801561036e57600080fd5b506103916004803603810190808035600019169060200190929190505050610896565b6040518083815260200180602001828103825283818151815260200191508051906020019080838360005b838110156103d75780820151818401526020810190506103bc565b50505050905090810190601f1680156104045780820380516001836020036101000a031916815260200191505b50935050505060405180910390f35b34801561041f57600080fd5b506104426004803603810190808035600019169060200190929190505050610952565b6040518080602001828103825283818151815260200191508051906020019080838360005b83811015610482578082015181840152602081019050610467565b50505050905090810190601f1680156104af5780820380516001836020036101000a031916815260200191505b509250505060405180910390f35b6000606060016040519080825280602002602001820160405280156104f15781602001602082028038833980820191505090505b5090503381600081518110151561050457fe5b9060200190602002019073ffffffffffffffffffffffffffffffffffffffff16908173ffffffffffffffffffffffffffffffffffffffff168152505060606040519081016040528084815260200185815260200182815250600080876000191660001916815260200190815260200160002060008201518160000155602082015181600101908051906020019061059c929190610a11565b5060408201518160020190805190602001906105b9929190610a91565b50905050849150509392505050565b60016020528060005260406000206000915054906101000a900460ff1681565b6060600080836000191660001916815260200190815260200160002060020180548060200260200160405190810160405280929190818152602001828054801561068757602002820191906000526020600020905b8160009054906101000a900473ffffffffffffffffffffffffffffffffffffffff1673ffffffffffffffffffffffffffffffffffffffff168152602001906001019080831161063d575b50505050509050919050565b80600080846000191660001916815260200190815260200160002060010190805190602001906106c4929190610b1b565b5060008083600019166000191681526020019081526020016000206002013390806001815401808255809150509060018203906000526020600020016000909192909190916101000a81548173ffffffffffffffffffffffffffffffffffffffff021916908373ffffffffffffffffffffffffffffffffffffffff160217905550505050565b600260009054906101000a900473ffffffffffffffffffffffffffffffffffffffff1673ffffffffffffffffffffffffffffffffffffffff163373ffffffffffffffffffffffffffffffffffffffff161415156107a657600080fd5b60018060008373ffffffffffffffffffffffffffffffffffffffff1673ffffffffffffffffffffffffffffffffffffffff16815260200190815260200160002060006101000a81548160ff02191690831515021790555050565b60011515600160008373ffffffffffffffffffffffffffffffffffffffff1673ffffffffffffffffffffffffffffffffffffffff16815260200190815260200160002060009054906101000a900460ff16151514151561085f57600080fd5b8160008085600019166000191681526020019081526020016000206001019080519060200190610890929190610b1b565b50505050565b6000602052806000526040600020600091509050806000015490806001018054600181600116156101000203166002900480601f0160208091040260200160405190810160405280929190818152602001828054600181600116156101000203166002900480156109485780601f1061091d57610100808354040283529160200191610948565b820191906000526020600020905b81548152906001019060200180831161092b57829003601f168201915b5050505050905082565b606060008083600019166000191681526020019081526020016000206001018054600181600116156101000203166002900480601f016020809104026020016040519081016040528092919081815260200182805460018160011615610100020316600290048015610a055780601f106109da57610100808354040283529160200191610a05565b820191906000526020600020905b8154815290600101906020018083116109e857829003601f168201915b50505050509050919050565b828054600181600116156101000203166002900490600052602060002090601f016020900481019282601f10610a5257805160ff1916838001178555610a80565b82800160010185558215610a80579182015b82811115610a7f578251825591602001919060010190610a64565b5b509050610a8d9190610b9b565b5090565b828054828255906000526020600020908101928215610b0a579160200282015b82811115610b095782518260006101000a81548173ffffffffffffffffffffffffffffffffffffffff021916908373ffffffffffffffffffffffffffffffffffffffff16021790555091602001919060010190610ab1565b5b509050610b179190610bc0565b5090565b828054600181600116156101000203166002900490600052602060002090601f016020900481019282601f10610b5c57805160ff1916838001178555610b8a565b82800160010185558215610b8a579182015b82811115610b89578251825591602001919060010190610b6e565b5b509050610b979190610b9b565b5090565b610bbd91905b80821115610bb9576000816000905550600101610ba1565b5090565b90565b610c0091905b80821115610bfc57600081816101000a81549073ffffffffffffffffffffffffffffffffffffffff021916905550600101610bc6565b5090565b905600a165627a7a7230582036abd3b7e3828d65ba357b7e4856707a794bcf0321ea7837322fd5854467b0c70029",
  "source": "pragma solidity ^0.4.4;\r\n\r\nimport \"./AgreementContract.sol\";\r\n\r\ncontract PoliceContract is AgreementContract{\r\n\r\n    mapping (address => bool) public policeRegistry;\r\n    address policeAdmin = 0xca35b7d915458ef540ade6068dfe2f44e8fa730e;\r\n\r\n     constructor() public{\r\n           policeRegistry[0xca35b7d915458ef540ade6068dfe2f44e8fa733b] = true;\r\n     }\r\n\r\n    function addPoliceReport(bytes32 _claimId, bytes _newBigchain_hash, address _policeAddress ) public {\r\n       // accidentParties[msg.sender].push(agreementId);\r\n        require(policeRegistry[_policeAddress] == true);\r\n        //require(claimS[_claimId].currentStage == \"initial\");\r\n        claimS[_claimId].bigchain_hash = _newBigchain_hash;\r\n    }\r\n\r\n    function addPoliceAddress(address _newPoliceAddress) public{\r\n        require(msg.sender == policeAdmin);\r\n        policeRegistry[_newPoliceAddress] = true;\r\n    }\r\n}\r\n",
  "sourcePath": "C:\\Users\\jeshw\\blockinsurance\\contracts\\blockinsurance\\PoliceContract.sol",
  "compiler": {
    "name": "solc",
    "version": "0.4.23+commit.124ca40d.Emscripten.clang"
  },
  "schemaVersion": "2.0.0",
  "updatedAt": "2018-07-08T15:46:16.890Z"
}