{
  "contractName": "PoliceContract",
  "abi": [
    {
      "constant": false,
      "inputs": [
        {
          "name": "_claimId",
          "type": "string"
        },
        {
          "name": "_newBigchain_hash",
          "type": "string"
        }
      ],
      "name": "addPoliceReport",
      "outputs": [],
      "payable": false,
      "stateMutability": "nonpayable",
      "type": "function"
    }
  ],
  "bytecode": "0x608060405273bde95422681e4c3984635af2f2f35f8c44a4ddc96000806101000a81548173ffffffffffffffffffffffffffffffffffffffff021916908373ffffffffffffffffffffffffffffffffffffffff16021790555034801561006457600080fd5b506103aa806100746000396000f300608060405260043610610041576000357c0100000000000000000000000000000000000000000000000000000000900463ffffffff168063d1a4fa7d14610046575b600080fd5b34801561005257600080fd5b506100f3600480360381019080803590602001908201803590602001908080601f0160208091040260200160405190810160405280939291908181526020018383808284378201915050505050509192919290803590602001908201803590602001908080601f01602080910402602001604051908101604052809392919081815260200183838082843782019150505050505091929192905050506100f5565b005b33600115156000809054906101000a900473ffffffffffffffffffffffffffffffffffffffff1673ffffffffffffffffffffffffffffffffffffffff1663143d4233836040518263ffffffff167c0100000000000000000000000000000000000000000000000000000000028152600401808273ffffffffffffffffffffffffffffffffffffffff1673ffffffffffffffffffffffffffffffffffffffff168152602001915050602060405180830381600087803b1580156101b657600080fd5b505af11580156101ca573d6000803e3d6000fd5b505050506040513d60208110156101e057600080fd5b810190808051906020019092919050505015151415156101ff57600080fd5b6000809054906101000a900473ffffffffffffffffffffffffffffffffffffffff1673ffffffffffffffffffffffffffffffffffffffff1663b3420d0a84846040518363ffffffff167c0100000000000000000000000000000000000000000000000000000000028152600401808060200180602001838103835285818151815260200191508051906020019080838360005b838110156102ad578082015181840152602081019050610292565b50505050905090810190601f1680156102da5780820380516001836020036101000a031916815260200191505b50838103825284818151815260200191508051906020019080838360005b838110156103135780820151818401526020810190506102f8565b50505050905090810190601f1680156103405780820380516001836020036101000a031916815260200191505b50945050505050600060405180830381600087803b15801561036157600080fd5b505af1158015610375573d6000803e3d6000fd5b505050505050505600a165627a7a72305820fb3dc513eb7b096049649550a1e0e80695966c508cdbbe7bb0fff6d1e2abe7fb0029",
  "source": "pragma solidity ^0.4.4;\r\n\r\nimport \"./ClaimStorage.sol\";\r\nimport \"./Claim.sol\";\r\n\r\n\r\n\r\n/// @title Examples of how to store and read a contract address in your dApps eternal storage for use in the hub / spoke pattern\r\n\r\ncontract PoliceContract {\r\n\r\n\r\n    /*** Contracts **************/\r\n\r\n    ClaimStorage claimStorage = ClaimStorage(0xbde95422681e4c3984635af2f2f35f8c44a4ddc9);         // The main ClaimAssist (The HUB) contract where primary persistant storage is maintained\r\n\r\n    /*** Modifiers ***********/\r\n\r\n    modifier onlyRegisteredPolice(address _resgisteredPoliceAddress) {\r\n        require(claimStorage.getPoliceBool(_resgisteredPoliceAddress) == true);\r\n        _;\r\n    }\r\n\r\n    function addPoliceReport(string _claimId, string _newBigchain_hash ) public onlyRegisteredPolice(msg.sender) {\r\n        claimStorage.setNewHash(_claimId,_newBigchain_hash);\r\n    }\r\n}\r\n",
  "sourcePath": "C:\\Users\\jeshw\\blockinsurance\\contracts\\claimAssist\\PoliceContract.sol",
  "compiler": {
    "name": "solc",
    "version": "0.4.23+commit.124ca40d.Emscripten.clang"
  },
  "schemaVersion": "2.0.0",
  "updatedAt": "2018-07-31T10:01:11.772Z"
}