{
  "contractName": "StorageBlocKYC",
  "abi": [
    {
      "constant": false,
      "inputs": [
        {
          "name": "_customerAddress",
          "type": "address"
        },
        {
          "name": "_hashOfData",
          "type": "bytes32"
        }
      ],
      "name": "changeCustomerData",
      "outputs": [],
      "payable": false,
      "stateMutability": "nonpayable",
      "type": "function"
    },
    {
      "constant": false,
      "inputs": [],
      "name": "kill",
      "outputs": [],
      "payable": false,
      "stateMutability": "nonpayable",
      "type": "function"
    },
    {
      "constant": false,
      "inputs": [
        {
          "name": "_appliedBank",
          "type": "address"
        },
        {
          "name": "_customerAddress",
          "type": "address"
        }
      ],
      "name": "addBankToCustomer",
      "outputs": [],
      "payable": false,
      "stateMutability": "nonpayable",
      "type": "function"
    },
    {
      "constant": false,
      "inputs": [
        {
          "name": "_bankAddress",
          "type": "address"
        }
      ],
      "name": "addBankToBankList",
      "outputs": [],
      "payable": false,
      "stateMutability": "nonpayable",
      "type": "function"
    },
    {
      "constant": false,
      "inputs": [
        {
          "name": "_customerAddress",
          "type": "address"
        },
        {
          "name": "_flaggingBank",
          "type": "address"
        }
      ],
      "name": "flagCustomerInNetwork",
      "outputs": [],
      "payable": false,
      "stateMutability": "nonpayable",
      "type": "function"
    },
    {
      "constant": true,
      "inputs": [
        {
          "name": "_customerAddress",
          "type": "address"
        }
      ],
      "name": "getCustomerDataForCustomer",
      "outputs": [
        {
          "name": "",
          "type": "bytes32"
        },
        {
          "name": "",
          "type": "bytes32"
        },
        {
          "name": "",
          "type": "bool"
        }
      ],
      "payable": false,
      "stateMutability": "view",
      "type": "function"
    },
    {
      "constant": false,
      "inputs": [
        {
          "name": "_customerAddress",
          "type": "address"
        },
        {
          "name": "_bankAddress",
          "type": "address"
        }
      ],
      "name": "verifyCustomer",
      "outputs": [],
      "payable": false,
      "stateMutability": "nonpayable",
      "type": "function"
    },
    {
      "constant": true,
      "inputs": [
        {
          "name": "_customerAddress",
          "type": "address"
        }
      ],
      "name": "getCustomerDetailsFromNetwork",
      "outputs": [
        {
          "name": "",
          "type": "bool"
        },
        {
          "name": "",
          "type": "bool"
        },
        {
          "name": "",
          "type": "bool"
        },
        {
          "name": "",
          "type": "address"
        }
      ],
      "payable": false,
      "stateMutability": "view",
      "type": "function"
    },
    {
      "constant": false,
      "inputs": [
        {
          "name": "_customerAddress",
          "type": "address"
        },
        {
          "name": "_name",
          "type": "bytes32"
        },
        {
          "name": "_hashOfData",
          "type": "bytes32"
        }
      ],
      "name": "addCustomerToCustomerData",
      "outputs": [],
      "payable": false,
      "stateMutability": "nonpayable",
      "type": "function"
    },
    {
      "constant": false,
      "inputs": [
        {
          "name": "_customerContractAddress",
          "type": "address"
        }
      ],
      "name": "setCustomerContract",
      "outputs": [],
      "payable": false,
      "stateMutability": "nonpayable",
      "type": "function"
    },
    {
      "constant": false,
      "inputs": [
        {
          "name": "_bankContractAddress",
          "type": "address"
        }
      ],
      "name": "setBankContract",
      "outputs": [],
      "payable": false,
      "stateMutability": "nonpayable",
      "type": "function"
    },
    {
      "constant": true,
      "inputs": [
        {
          "name": "_customerAddress",
          "type": "address"
        },
        {
          "name": "_bankAddress",
          "type": "address"
        }
      ],
      "name": "getCustomerDataForBank",
      "outputs": [
        {
          "name": "",
          "type": "bytes32"
        },
        {
          "name": "",
          "type": "bytes32"
        },
        {
          "name": "",
          "type": "bool"
        }
      ],
      "payable": false,
      "stateMutability": "view",
      "type": "function"
    },
    {
      "constant": true,
      "inputs": [
        {
          "name": "_bankAddress",
          "type": "address"
        }
      ],
      "name": "isBank",
      "outputs": [
        {
          "name": "",
          "type": "bool"
        }
      ],
      "payable": false,
      "stateMutability": "view",
      "type": "function"
    },
    {
      "constant": false,
      "inputs": [
        {
          "name": "_customerAddress",
          "type": "address"
        },
        {
          "name": "_verifierBank",
          "type": "address"
        }
      ],
      "name": "verifyCustomerInNetwork",
      "outputs": [],
      "payable": false,
      "stateMutability": "nonpayable",
      "type": "function"
    }
  ],
  "bytecode": "0x6060604052336000806101000a81548173ffffffffffffffffffffffffffffffffffffffff021916908373ffffffffffffffffffffffffffffffffffffffff160217905550611689806100536000396000f3006060604052600436106100d0576000357c0100000000000000000000000000000000000000000000000000000000900463ffffffff1680630bf49ea5146100d557806341c0e1b51461011b578063469957351461013057806347380d4614610188578063817dc7ba146101c1578063877db6b014610219578063abbc549b14610288578063c06ed24f146102e0578063c81052141461037a578063d34cdbdb146103cd578063d351b5fd14610406578063dfb0772b1461043f578063ec676a49146104cd578063f6f2b4ed1461051e575b600080fd5b34156100e057600080fd5b610119600480803573ffffffffffffffffffffffffffffffffffffffff1690602001909190803560001916906020019091905050610576565b005b341561012657600080fd5b61012e6106d7565b005b341561013b57600080fd5b610186600480803573ffffffffffffffffffffffffffffffffffffffff1690602001909190803573ffffffffffffffffffffffffffffffffffffffff1690602001909190505061076c565b005b341561019357600080fd5b6101bf600480803573ffffffffffffffffffffffffffffffffffffffff169060200190919050506108bf565b005b34156101cc57600080fd5b610217600480803573ffffffffffffffffffffffffffffffffffffffff1690602001909190803573ffffffffffffffffffffffffffffffffffffffff169060200190919050506109d5565b005b341561022457600080fd5b610250600480803573ffffffffffffffffffffffffffffffffffffffff16906020019091905050610b6c565b604051808460001916600019168152602001836000191660001916815260200182151515158152602001935050505060405180910390f35b341561029357600080fd5b6102de600480803573ffffffffffffffffffffffffffffffffffffffff1690602001909190803573ffffffffffffffffffffffffffffffffffffffff16906020019091905050610cb0565b005b34156102eb57600080fd5b610317600480803573ffffffffffffffffffffffffffffffffffffffff16906020019091905050610e03565b604051808515151515815260200184151515158152602001831515151581526020018273ffffffffffffffffffffffffffffffffffffffff1673ffffffffffffffffffffffffffffffffffffffff16815260200194505050505060405180910390f35b341561038557600080fd5b6103cb600480803573ffffffffffffffffffffffffffffffffffffffff169060200190919080356000191690602001909190803560001916906020019091905050610fc7565b005b34156103d857600080fd5b610404600480803573ffffffffffffffffffffffffffffffffffffffff16906020019091905050611156565b005b341561041157600080fd5b61043d600480803573ffffffffffffffffffffffffffffffffffffffff169060200190919050506111f5565b005b341561044a57600080fd5b610495600480803573ffffffffffffffffffffffffffffffffffffffff1690602001909190803573ffffffffffffffffffffffffffffffffffffffff16906020019091905050611294565b604051808460001916600019168152602001836000191660001916815260200182151515158152602001935050505060405180910390f35b34156104d857600080fd5b610504600480803573ffffffffffffffffffffffffffffffffffffffff16906020019091905050611470565b604051808215151515815260200191505060405180910390f35b341561052957600080fd5b610574600480803573ffffffffffffffffffffffffffffffffffffffff1690602001909190803573ffffffffffffffffffffffffffffffffffffffff169060200190919050506114c6565b005b600260009054906101000a900473ffffffffffffffffffffffffffffffffffffffff1673ffffffffffffffffffffffffffffffffffffffff163373ffffffffffffffffffffffffffffffffffffffff161415156105d257600080fd5b600460008373ffffffffffffffffffffffffffffffffffffffff1673ffffffffffffffffffffffffffffffffffffffff16815260200190815260200160002060030160019054906101000a900460ff16151561062d57600080fd5b80600460008473ffffffffffffffffffffffffffffffffffffffff1673ffffffffffffffffffffffffffffffffffffffff16815260200190815260200160002060020181600019169055506000600460008473ffffffffffffffffffffffffffffffffffffffff1673ffffffffffffffffffffffffffffffffffffffff16815260200190815260200160002060030160006101000a81548160ff0219169083151502179055505050565b6000809054906101000a900473ffffffffffffffffffffffffffffffffffffffff1673ffffffffffffffffffffffffffffffffffffffff163373ffffffffffffffffffffffffffffffffffffffff1614151561073257600080fd5b6000809054906101000a900473ffffffffffffffffffffffffffffffffffffffff1673ffffffffffffffffffffffffffffffffffffffff16ff5b600260009054906101000a900473ffffffffffffffffffffffffffffffffffffffff1673ffffffffffffffffffffffffffffffffffffffff163373ffffffffffffffffffffffffffffffffffffffff161415156107c857600080fd5b600460008273ffffffffffffffffffffffffffffffffffffffff1673ffffffffffffffffffffffffffffffffffffffff16815260200190815260200160002060030160019054906101000a900460ff16151561082357600080fd5b6001600460003373ffffffffffffffffffffffffffffffffffffffff1673ffffffffffffffffffffffffffffffffffffffff16815260200190815260200160002060010160008473ffffffffffffffffffffffffffffffffffffffff1673ffffffffffffffffffffffffffffffffffffffff16815260200190815260200160002060006101000a81548160ff0219169083151502179055505050565b600160009054906101000a900473ffffffffffffffffffffffffffffffffffffffff1673ffffffffffffffffffffffffffffffffffffffff163373ffffffffffffffffffffffffffffffffffffffff1614151561091b57600080fd5b60001515600360008373ffffffffffffffffffffffffffffffffffffffff1673ffffffffffffffffffffffffffffffffffffffff16815260200190815260200160002060009054906101000a900460ff16151514151561097a57600080fd5b6001600360008373ffffffffffffffffffffffffffffffffffffffff1673ffffffffffffffffffffffffffffffffffffffff16815260200190815260200160002060006101000a81548160ff02191690831515021790555050565b600160009054906101000a900473ffffffffffffffffffffffffffffffffffffffff1673ffffffffffffffffffffffffffffffffffffffff163373ffffffffffffffffffffffffffffffffffffffff16141515610a3157600080fd5b600560008373ffffffffffffffffffffffffffffffffffffffff1673ffffffffffffffffffffffffffffffffffffffff16815260200190815260200160002060000160009054906101000a900460ff161515610a8c57600080fd5b6001600560008473ffffffffffffffffffffffffffffffffffffffff1673ffffffffffffffffffffffffffffffffffffffff16815260200190815260200160002060000160026101000a81548160ff02191690831515021790555080600560008473ffffffffffffffffffffffffffffffffffffffff1673ffffffffffffffffffffffffffffffffffffffff16815260200190815260200160002060010160006101000a81548173ffffffffffffffffffffffffffffffffffffffff021916908373ffffffffffffffffffffffffffffffffffffffff1602179055505050565b6000806000600260009054906101000a900473ffffffffffffffffffffffffffffffffffffffff1673ffffffffffffffffffffffffffffffffffffffff163373ffffffffffffffffffffffffffffffffffffffff16141515610bcd57600080fd5b600460008573ffffffffffffffffffffffffffffffffffffffff1673ffffffffffffffffffffffffffffffffffffffff16815260200190815260200160002060000154600460008673ffffffffffffffffffffffffffffffffffffffff1673ffffffffffffffffffffffffffffffffffffffff16815260200190815260200160002060020154600460008773ffffffffffffffffffffffffffffffffffffffff1673ffffffffffffffffffffffffffffffffffffffff16815260200190815260200160002060030160009054906101000a900460ff169250925092509193909250565b600160009054906101000a900473ffffffffffffffffffffffffffffffffffffffff1673ffffffffffffffffffffffffffffffffffffffff163373ffffffffffffffffffffffffffffffffffffffff16141515610d0c57600080fd5b600460008373ffffffffffffffffffffffffffffffffffffffff1673ffffffffffffffffffffffffffffffffffffffff16815260200190815260200160002060010160008273ffffffffffffffffffffffffffffffffffffffff1673ffffffffffffffffffffffffffffffffffffffff16815260200190815260200160002060009054906101000a900460ff161515610da457600080fd5b6001600460008473ffffffffffffffffffffffffffffffffffffffff1673ffffffffffffffffffffffffffffffffffffffff16815260200190815260200160002060030160006101000a81548160ff0219169083151502179055505050565b600080600080600160009054906101000a900473ffffffffffffffffffffffffffffffffffffffff1673ffffffffffffffffffffffffffffffffffffffff163373ffffffffffffffffffffffffffffffffffffffff16141515610e6557600080fd5b600560008673ffffffffffffffffffffffffffffffffffffffff1673ffffffffffffffffffffffffffffffffffffffff16815260200190815260200160002060000160009054906101000a900460ff16600560008773ffffffffffffffffffffffffffffffffffffffff1673ffffffffffffffffffffffffffffffffffffffff16815260200190815260200160002060000160019054906101000a900460ff16600560008873ffffffffffffffffffffffffffffffffffffffff1673ffffffffffffffffffffffffffffffffffffffff16815260200190815260200160002060000160029054906101000a900460ff16600560008973ffffffffffffffffffffffffffffffffffffffff1673ffffffffffffffffffffffffffffffffffffffff16815260200190815260200160002060000160039054906101000a900473ffffffffffffffffffffffffffffffffffffffff1693509350935093509193509193565b600260009054906101000a900473ffffffffffffffffffffffffffffffffffffffff1673ffffffffffffffffffffffffffffffffffffffff163373ffffffffffffffffffffffffffffffffffffffff1614151561102357600080fd5b600460008473ffffffffffffffffffffffffffffffffffffffff1673ffffffffffffffffffffffffffffffffffffffff16815260200190815260200160002060030160019054906101000a900460ff1615151561107f57600080fd5b608060405190810160405280836000191681526020018260001916815260200160001515815260200160011515815250600460008573ffffffffffffffffffffffffffffffffffffffff1673ffffffffffffffffffffffffffffffffffffffff168152602001908152602001600020600082015181600001906000191690556020820151816002019060001916905560408201518160030160006101000a81548160ff02191690831515021790555060608201518160030160016101000a81548160ff021916908315150217905550905050505050565b6000809054906101000a900473ffffffffffffffffffffffffffffffffffffffff1673ffffffffffffffffffffffffffffffffffffffff163373ffffffffffffffffffffffffffffffffffffffff161415156111b157600080fd5b80600260006101000a81548173ffffffffffffffffffffffffffffffffffffffff021916908373ffffffffffffffffffffffffffffffffffffffff16021790555050565b6000809054906101000a900473ffffffffffffffffffffffffffffffffffffffff1673ffffffffffffffffffffffffffffffffffffffff163373ffffffffffffffffffffffffffffffffffffffff1614151561125057600080fd5b80600160006101000a81548173ffffffffffffffffffffffffffffffffffffffff021916908373ffffffffffffffffffffffffffffffffffffffff16021790555050565b6000806000600160009054906101000a900473ffffffffffffffffffffffffffffffffffffffff1673ffffffffffffffffffffffffffffffffffffffff163373ffffffffffffffffffffffffffffffffffffffff161415156112f557600080fd5b600460008673ffffffffffffffffffffffffffffffffffffffff1673ffffffffffffffffffffffffffffffffffffffff16815260200190815260200160002060010160008573ffffffffffffffffffffffffffffffffffffffff1673ffffffffffffffffffffffffffffffffffffffff16815260200190815260200160002060009054906101000a900460ff16151561138d57600080fd5b600460008673ffffffffffffffffffffffffffffffffffffffff1673ffffffffffffffffffffffffffffffffffffffff16815260200190815260200160002060000154600460008773ffffffffffffffffffffffffffffffffffffffff1673ffffffffffffffffffffffffffffffffffffffff16815260200190815260200160002060020154600460008873ffffffffffffffffffffffffffffffffffffffff1673ffffffffffffffffffffffffffffffffffffffff16815260200190815260200160002060030160009054906101000a900460ff169250925092509250925092565b6000600360008373ffffffffffffffffffffffffffffffffffffffff1673ffffffffffffffffffffffffffffffffffffffff16815260200190815260200160002060009054906101000a900460ff169050919050565b600160009054906101000a900473ffffffffffffffffffffffffffffffffffffffff1673ffffffffffffffffffffffffffffffffffffffff163373ffffffffffffffffffffffffffffffffffffffff1614151561152257600080fd5b6001600560008473ffffffffffffffffffffffffffffffffffffffff1673ffffffffffffffffffffffffffffffffffffffff16815260200190815260200160002060000160006101000a81548160ff0219169083151502179055506001600560008473ffffffffffffffffffffffffffffffffffffffff1673ffffffffffffffffffffffffffffffffffffffff16815260200190815260200160002060000160016101000a81548160ff02191690831515021790555080600560008473ffffffffffffffffffffffffffffffffffffffff1673ffffffffffffffffffffffffffffffffffffffff16815260200190815260200160002060000160036101000a81548173ffffffffffffffffffffffffffffffffffffffff021916908373ffffffffffffffffffffffffffffffffffffffff16021790555050505600a165627a7a72305820f89ec737339684b484198f2ba8e61af6f1a41c3936bd2b9d60d269a9cd33c4b40029",
  "source": "pragma solidity ^0.4.17;\r\n\r\nimport \"./Mortal_BlocKYC.sol\";\r\n\r\ncontract StorageBlocKYC is OwnedBlocKYC, MortalBlocKYC {\r\n\r\n    /*Access Modifiers */\r\n    //Stores address of contracts which can use this storage\r\n    address bankContract;\r\n    address customerContract;\r\n\r\n    //Setter for Access modifiers\r\n    function setBankContract(address _bankContractAddress) external onlyOwner {\r\n        bankContract = _bankContractAddress;\r\n    }\r\n\r\n    //Setter for Access modifiers\r\n    function setCustomerContract(address _customerContractAddress) external onlyOwner {\r\n        customerContract = _customerContractAddress;\r\n    }\r\n\r\n    //------------------------------------- Customer Data and storage - Customer View -------------------------------------//\r\n    struct Customer {\r\n        bytes32 name;\r\n        mapping(address => bool) banks;\r\n        bytes32 hashOfData;\r\n        bool isVerified;\r\n        bool initialized;\r\n    }\r\n    \r\n    mapping (address => bool) private bankList;\r\n    mapping(address => Customer) private customerData;\r\n\r\n    //getter bankList\r\n    function isBank(address _bankAddress) external view returns (bool) {\r\n        return bankList[_bankAddress];\r\n    }\r\n\r\n    //setter bankList\r\n    function addBankToBankList(address _bankAddress) external {\r\n        require(msg.sender == bankContract);    //Can be called only by bank contract\r\n        require(bankList[_bankAddress] == false); //Bank should not be already added\r\n        bankList[_bankAddress] = true;\r\n    }\r\n\r\n    //getter customerData from Bank contract\r\n    function getCustomerDataForBank(address _customerAddress, address _bankAddress) external view returns (\r\n        bytes32,\r\n        bytes32,\r\n        bool\r\n        ) {\r\n            require(msg.sender == bankContract);    //Can be called only by bank contract\r\n            require(customerData[_customerAddress].banks[_bankAddress]); //Can be called only by a bank that the customer has added to it's list\r\n            return (\r\n                customerData[_customerAddress].name,\r\n                customerData[_customerAddress].hashOfData,\r\n                customerData[_customerAddress].isVerified\r\n            );\r\n    }\r\n\r\n    //getter customerData from Bank contract\r\n    function getCustomerDataForCustomer(address _customerAddress) external view returns (\r\n        bytes32,\r\n        bytes32,\r\n        bool\r\n        ) {\r\n            require(msg.sender == customerContract);    //Can be called only by customer contract\r\n            return (\r\n                customerData[_customerAddress].name,\r\n                customerData[_customerAddress].hashOfData,\r\n                customerData[_customerAddress].isVerified\r\n            );\r\n    }\r\n\r\n    //setter customerData\r\n    function addCustomerToCustomerData(address _customerAddress, bytes32 _name, bytes32 _hashOfData) external {\r\n        require(msg.sender == customerContract);    //Can be invoked only by Customer contract\r\n        require(!customerData[_customerAddress].initialized);   //Customer should not be already added\r\n\r\n        customerData[_customerAddress] = Customer(_name, _hashOfData, false, true);\r\n    }\r\n\r\n    //setter bank list in customer data\r\n    function addBankToCustomer(address _appliedBank, address _customerAddress) external {\r\n        require(msg.sender == customerContract);    //Can be invoked only by Customer contract\r\n        require(customerData[_customerAddress].initialized);  //Customer should be already added\r\n        customerData[msg.sender].banks[_appliedBank] = true;\r\n    }\r\n\r\n    //setter hashOfData in customer data\r\n    function changeCustomerData(address _customerAddress, bytes32 _hashOfData) external {\r\n        require(msg.sender == customerContract);    //Can be invoked only by Customer contract\r\n        require(customerData[_customerAddress].initialized);  //Customer should be already added\r\n\r\n        customerData[_customerAddress].hashOfData = _hashOfData;\r\n        customerData[_customerAddress].isVerified = false;\r\n    }\r\n\r\n    //setter of verified field in customer data\r\n    function verifyCustomer(address _customerAddress, address _bankAddress) external {\r\n        require(msg.sender == bankContract);    //Can be called only by bank contract\r\n        require(customerData[_customerAddress].banks[_bankAddress]); //Can be called only by a bank that the customer has added to it's list\r\n        customerData[_customerAddress].isVerified = true;\r\n    }\r\n\r\n    //------------------------------------------- Customer Data - Bank View ----------------------------------------------//\r\n    struct CustomerDetailsByBank {\r\n        bool initialized;\r\n        bool isVerified;\r\n        bool isFlagged;\r\n        address verifierBank;\r\n        address flaggingBank;\r\n    }\r\n\r\n    mapping (address => CustomerDetailsByBank) private bankNetworkToCustomerDetailsMap;\r\n\r\n    //Getter of bankToCustomerDetailsMap\r\n    function getCustomerDetailsFromNetwork (address _customerAddress) external view returns (bool, bool, bool, address) {\r\n        require(msg.sender == bankContract);    //Can be called only by bank contract\r\n        return(\r\n            bankNetworkToCustomerDetailsMap[_customerAddress].initialized,\r\n            bankNetworkToCustomerDetailsMap[_customerAddress].isVerified,\r\n            bankNetworkToCustomerDetailsMap[_customerAddress].isFlagged,\r\n            bankNetworkToCustomerDetailsMap[_customerAddress].verifierBank\r\n        );\r\n    }\r\n\r\n    function verifyCustomerInNetwork (address _customerAddress, address _verifierBank) external {\r\n        require(msg.sender == bankContract);    //Can be called only by bank contract\r\n        bankNetworkToCustomerDetailsMap[_customerAddress].initialized = true;\r\n        bankNetworkToCustomerDetailsMap[_customerAddress].isVerified = true;\r\n        bankNetworkToCustomerDetailsMap[_customerAddress].verifierBank = _verifierBank;    \r\n    }\r\n\r\n    function flagCustomerInNetwork (address _customerAddress, address _flaggingBank) external {\r\n        require(msg.sender == bankContract);    //Can be called only by bank contract\r\n        require(bankNetworkToCustomerDetailsMap[_customerAddress].initialized);\r\n        bankNetworkToCustomerDetailsMap[_customerAddress].isFlagged = true;\r\n        bankNetworkToCustomerDetailsMap[_customerAddress].flaggingBank = _flaggingBank;    \r\n    }\r\n}",
  "sourcePath": "C:\\Prakktikum\\blc4pi-plc\\contracts\\BlocKYC\\Storage_BlocKYC.sol",
  "compiler": {
    "name": "solc",
    "version": "0.4.18+commit.9cf6e910.Emscripten.clang"
  },
  "schemaVersion": "1.0.1",
  "updatedAt": "2018-04-20T18:12:06.482Z"
}